{"abi":[{"inputs":[],"stateMutability":"nonpayable","type":"constructor"},{"inputs":[{"internalType":"uint256","name":"i","type":"uint256"},{"internalType":"uint256","name":"j","type":"uint256"}],"name":"retrieve","outputs":[{"internalType":"enum Places.Colour","name":"","type":"uint8"}],"stateMutability":"view","type":"function"},{"inputs":[{"internalType":"enum Places.Colour","name":"_colour","type":"uint8"},{"internalType":"uint256","name":"i","type":"uint256"},{"internalType":"uint256","name":"j","type":"uint256"}],"name":"store","outputs":[],"stateMutability":"nonpayable","type":"function"}],"devdoc":{"kind":"dev","methods":{},"version":1},"evm":{"assembly":"    /* \"/home/krubot/Projects/eth-place/contracts/eth_place.sol\":63:1021  contract Places {... */\n  mstore(0x40, 0x80)\n    /* \"/home/krubot/Projects/eth-place/contracts/eth_place.sol\":648:818  constructor() public {... */\n  callvalue\n  dup1\n  iszero\n  tag_1\n  jumpi\n  0x00\n  dup1\n  revert\ntag_1:\n  pop\n    /* \"/home/krubot/Projects/eth-place/contracts/eth_place.sol\":684:690  uint i */\n  0x00\n    /* \"/home/krubot/Projects/eth-place/contracts/eth_place.sol\":679:812  for (uint i=0; i<16; i++){... */\ntag_4:\n    /* \"/home/krubot/Projects/eth-place/contracts/eth_place.sol\":696:698  16 */\n  0x10\n    /* \"/home/krubot/Projects/eth-place/contracts/eth_place.sol\":694:695  i */\n  dup2\n    /* \"/home/krubot/Projects/eth-place/contracts/eth_place.sol\":694:698  i<16 */\n  lt\n    /* \"/home/krubot/Projects/eth-place/contracts/eth_place.sol\":679:812  for (uint i=0; i<16; i++){... */\n  iszero\n  tag_5\n  jumpi\n    /* \"/home/krubot/Projects/eth-place/contracts/eth_place.sol\":723:729  uint j */\n  0x00\n    /* \"/home/krubot/Projects/eth-place/contracts/eth_place.sol\":718:802  for (uint j=0; j<16; j++){... */\ntag_7:\n    /* \"/home/krubot/Projects/eth-place/contracts/eth_place.sol\":735:737  16 */\n  0x10\n    /* \"/home/krubot/Projects/eth-place/contracts/eth_place.sol\":733:734  j */\n  dup2\n    /* \"/home/krubot/Projects/eth-place/contracts/eth_place.sol\":733:737  j<16 */\n  lt\n    /* \"/home/krubot/Projects/eth-place/contracts/eth_place.sol\":718:802  for (uint j=0; j<16; j++){... */\n  iszero\n  tag_8\n  jumpi\n    /* \"/home/krubot/Projects/eth-place/contracts/eth_place.sol\":775:787  Colour.White */\n  0x00\n    /* \"/home/krubot/Projects/eth-place/contracts/eth_place.sol\":761:766  state */\n  dup1\n    /* \"/home/krubot/Projects/eth-place/contracts/eth_place.sol\":767:768  i */\n  dup4\n    /* \"/home/krubot/Projects/eth-place/contracts/eth_place.sol\":761:769  state[i] */\n  0x10\n  dup2\n  lt\n  tag_10\n  jumpi\n  tag_11\n  tag_12\n  jump\t// in\ntag_11:\ntag_10:\n  add\n    /* \"/home/krubot/Projects/eth-place/contracts/eth_place.sol\":770:771  j */\n  dup3\n    /* \"/home/krubot/Projects/eth-place/contracts/eth_place.sol\":761:772  state[i][j] */\n  0x10\n  dup2\n  lt\n  tag_14\n  jumpi\n  tag_15\n  tag_12\n  jump\t// in\ntag_15:\ntag_14:\n  0x20\n  swap2\n  dup3\n  dup3\n  div\n  add\n  swap2\n  swap1\n  mod\n    /* \"/home/krubot/Projects/eth-place/contracts/eth_place.sol\":761:787  state[i][j] = Colour.White */\n  0x0100\n  exp\n  dup2\n  sload\n  dup2\n  0xff\n  mul\n  not\n  and\n  swap1\n  dup4\n  0x0f\n  dup2\n  gt\n  iszero\n  tag_17\n  jumpi\n  tag_18\n  tag_19\n  jump\t// in\ntag_18:\ntag_17:\n  mul\n  or\n  swap1\n  sstore\n  pop\n    /* \"/home/krubot/Projects/eth-place/contracts/eth_place.sol\":739:742  j++ */\n  dup1\n  dup1\n  tag_20\n  swap1\n  tag_21\n  jump\t// in\ntag_20:\n  swap2\n  pop\n  pop\n    /* \"/home/krubot/Projects/eth-place/contracts/eth_place.sol\":718:802  for (uint j=0; j<16; j++){... */\n  jump(tag_7)\ntag_8:\n  pop\n    /* \"/home/krubot/Projects/eth-place/contracts/eth_place.sol\":700:703  i++ */\n  dup1\n  dup1\n  tag_22\n  swap1\n  tag_21\n  jump\t// in\ntag_22:\n  swap2\n  pop\n  pop\n    /* \"/home/krubot/Projects/eth-place/contracts/eth_place.sol\":679:812  for (uint i=0; i<16; i++){... */\n  jump(tag_4)\ntag_5:\n  pop\n    /* \"/home/krubot/Projects/eth-place/contracts/eth_place.sol\":63:1021  contract Places {... */\n  jump(tag_23)\n    /* \"#utility.yul\":7:187   */\ntag_12:\n    /* \"#utility.yul\":55:132   */\n  0x4e487b7100000000000000000000000000000000000000000000000000000000\n    /* \"#utility.yul\":52:53   */\n  0x00\n    /* \"#utility.yul\":45:133   */\n  mstore\n    /* \"#utility.yul\":152:156   */\n  0x32\n    /* \"#utility.yul\":149:150   */\n  0x04\n    /* \"#utility.yul\":142:157   */\n  mstore\n    /* \"#utility.yul\":176:180   */\n  0x24\n    /* \"#utility.yul\":173:174   */\n  0x00\n    /* \"#utility.yul\":166:181   */\n  revert\n    /* \"#utility.yul\":193:373   */\ntag_19:\n    /* \"#utility.yul\":241:318   */\n  0x4e487b7100000000000000000000000000000000000000000000000000000000\n    /* \"#utility.yul\":238:239   */\n  0x00\n    /* \"#utility.yul\":231:319   */\n  mstore\n    /* \"#utility.yul\":338:342   */\n  0x21\n    /* \"#utility.yul\":335:336   */\n  0x04\n    /* \"#utility.yul\":328:343   */\n  mstore\n    /* \"#utility.yul\":362:366   */\n  0x24\n    /* \"#utility.yul\":359:360   */\n  0x00\n    /* \"#utility.yul\":352:367   */\n  revert\n    /* \"#utility.yul\":379:559   */\ntag_24:\n    /* \"#utility.yul\":427:504   */\n  0x4e487b7100000000000000000000000000000000000000000000000000000000\n    /* \"#utility.yul\":424:425   */\n  0x00\n    /* \"#utility.yul\":417:505   */\n  mstore\n    /* \"#utility.yul\":524:528   */\n  0x11\n    /* \"#utility.yul\":521:522   */\n  0x04\n    /* \"#utility.yul\":514:529   */\n  mstore\n    /* \"#utility.yul\":548:552   */\n  0x24\n    /* \"#utility.yul\":545:546   */\n  0x00\n    /* \"#utility.yul\":538:553   */\n  revert\n    /* \"#utility.yul\":565:642   */\ntag_25:\n    /* \"#utility.yul\":602:609   */\n  0x00\n    /* \"#utility.yul\":631:636   */\n  dup2\n    /* \"#utility.yul\":620:636   */\n  swap1\n  pop\n    /* \"#utility.yul\":565:642   */\n  swap2\n  swap1\n  pop\n  jump\t// out\n    /* \"#utility.yul\":648:881   */\ntag_21:\n    /* \"#utility.yul\":687:690   */\n  0x00\n    /* \"#utility.yul\":710:734   */\n  tag_32\n    /* \"#utility.yul\":728:733   */\n  dup3\n    /* \"#utility.yul\":710:734   */\n  tag_25\n  jump\t// in\ntag_32:\n    /* \"#utility.yul\":701:734   */\n  swap2\n  pop\n    /* \"#utility.yul\":756:822   */\n  0xffffffffffffffffffffffffffffffffffffffffffffffffffffffffffffffff\n    /* \"#utility.yul\":749:754   */\n  dup3\n    /* \"#utility.yul\":746:823   */\n  sub\n    /* \"#utility.yul\":743:846   */\n  tag_33\n  jumpi\n    /* \"#utility.yul\":826:844   */\n  tag_34\n  tag_24\n  jump\t// in\ntag_34:\n    /* \"#utility.yul\":743:846   */\ntag_33:\n    /* \"#utility.yul\":873:874   */\n  0x01\n    /* \"#utility.yul\":866:871   */\n  dup3\n    /* \"#utility.yul\":862:875   */\n  add\n    /* \"#utility.yul\":855:875   */\n  swap1\n  pop\n    /* \"#utility.yul\":648:881   */\n  swap2\n  swap1\n  pop\n  jump\t// out\n    /* \"/home/krubot/Projects/eth-place/contracts/eth_place.sol\":63:1021  contract Places {... */\ntag_23:\n  dataSize(sub_0)\n  dup1\n  dataOffset(sub_0)\n  0x00\n  codecopy\n  0x00\n  return\nstop\n\nsub_0: assembly {\n        /* \"/home/krubot/Projects/eth-place/contracts/eth_place.sol\":63:1021  contract Places {... */\n      mstore(0x40, 0x80)\n      callvalue\n      dup1\n      iszero\n      tag_1\n      jumpi\n      0x00\n      dup1\n      revert\n    tag_1:\n      pop\n      jumpi(tag_2, lt(calldatasize, 0x04))\n      shr(0xe0, calldataload(0x00))\n      dup1\n      0x48fcefdf\n      eq\n      tag_3\n      jumpi\n      dup1\n      0x7c252208\n      eq\n      tag_4\n      jumpi\n    tag_2:\n      0x00\n      dup1\n      revert\n        /* \"/home/krubot/Projects/eth-place/contracts/eth_place.sol\":824:916  function store(Colour _colour, uint i, uint j) public {... */\n    tag_3:\n      tag_5\n      0x04\n      dup1\n      calldatasize\n      sub\n      dup2\n      add\n      swap1\n      tag_6\n      swap2\n      swap1\n      tag_7\n      jump\t// in\n    tag_6:\n      tag_8\n      jump\t// in\n    tag_5:\n      stop\n        /* \"/home/krubot/Projects/eth-place/contracts/eth_place.sol\":922:1019  function retrieve(uint i, uint j) public view returns (Colour){... */\n    tag_4:\n      tag_9\n      0x04\n      dup1\n      calldatasize\n      sub\n      dup2\n      add\n      swap1\n      tag_10\n      swap2\n      swap1\n      tag_11\n      jump\t// in\n    tag_10:\n      tag_12\n      jump\t// in\n    tag_9:\n      mload(0x40)\n      tag_13\n      swap2\n      swap1\n      tag_14\n      jump\t// in\n    tag_13:\n      mload(0x40)\n      dup1\n      swap2\n      sub\n      swap1\n      return\n        /* \"/home/krubot/Projects/eth-place/contracts/eth_place.sol\":824:916  function store(Colour _colour, uint i, uint j) public {... */\n    tag_8:\n        /* \"/home/krubot/Projects/eth-place/contracts/eth_place.sol\":902:909  _colour */\n      dup3\n        /* \"/home/krubot/Projects/eth-place/contracts/eth_place.sol\":888:893  state */\n      0x00\n        /* \"/home/krubot/Projects/eth-place/contracts/eth_place.sol\":894:895  i */\n      dup4\n        /* \"/home/krubot/Projects/eth-place/contracts/eth_place.sol\":888:896  state[i] */\n      0x10\n      dup2\n      lt\n      tag_16\n      jumpi\n      tag_17\n      tag_18\n      jump\t// in\n    tag_17:\n    tag_16:\n      add\n        /* \"/home/krubot/Projects/eth-place/contracts/eth_place.sol\":897:898  j */\n      dup3\n        /* \"/home/krubot/Projects/eth-place/contracts/eth_place.sol\":888:899  state[i][j] */\n      0x10\n      dup2\n      lt\n      tag_20\n      jumpi\n      tag_21\n      tag_18\n      jump\t// in\n    tag_21:\n    tag_20:\n      0x20\n      swap2\n      dup3\n      dup3\n      div\n      add\n      swap2\n      swap1\n      mod\n        /* \"/home/krubot/Projects/eth-place/contracts/eth_place.sol\":888:909  state[i][j] = _colour */\n      0x0100\n      exp\n      dup2\n      sload\n      dup2\n      0xff\n      mul\n      not\n      and\n      swap1\n      dup4\n      0x0f\n      dup2\n      gt\n      iszero\n      tag_23\n      jumpi\n      tag_24\n      tag_25\n      jump\t// in\n    tag_24:\n    tag_23:\n      mul\n      or\n      swap1\n      sstore\n      pop\n        /* \"/home/krubot/Projects/eth-place/contracts/eth_place.sol\":824:916  function store(Colour _colour, uint i, uint j) public {... */\n      pop\n      pop\n      pop\n      jump\t// out\n        /* \"/home/krubot/Projects/eth-place/contracts/eth_place.sol\":922:1019  function retrieve(uint i, uint j) public view returns (Colour){... */\n    tag_12:\n        /* \"/home/krubot/Projects/eth-place/contracts/eth_place.sol\":977:983  Colour */\n      0x00\n        /* \"/home/krubot/Projects/eth-place/contracts/eth_place.sol\":1001:1006  state */\n      dup1\n        /* \"/home/krubot/Projects/eth-place/contracts/eth_place.sol\":1007:1008  i */\n      dup4\n        /* \"/home/krubot/Projects/eth-place/contracts/eth_place.sol\":1001:1009  state[i] */\n      0x10\n      dup2\n      lt\n      tag_27\n      jumpi\n      tag_28\n      tag_18\n      jump\t// in\n    tag_28:\n    tag_27:\n      add\n        /* \"/home/krubot/Projects/eth-place/contracts/eth_place.sol\":1010:1011  j */\n      dup3\n        /* \"/home/krubot/Projects/eth-place/contracts/eth_place.sol\":1001:1012  state[i][j] */\n      0x10\n      dup2\n      lt\n      tag_30\n      jumpi\n      tag_31\n      tag_18\n      jump\t// in\n    tag_31:\n    tag_30:\n      0x20\n      swap2\n      dup3\n      dup3\n      div\n      add\n      swap2\n      swap1\n      mod\n      swap1\n      sload\n      swap1\n      0x0100\n      exp\n      swap1\n      div\n      0xff\n      and\n        /* \"/home/krubot/Projects/eth-place/contracts/eth_place.sol\":994:1012  return state[i][j] */\n      swap1\n      pop\n        /* \"/home/krubot/Projects/eth-place/contracts/eth_place.sol\":922:1019  function retrieve(uint i, uint j) public view returns (Colour){... */\n      swap3\n      swap2\n      pop\n      pop\n      jump\t// out\n        /* \"#utility.yul\":88:205   */\n    tag_34:\n        /* \"#utility.yul\":197:198   */\n      0x00\n        /* \"#utility.yul\":194:195   */\n      dup1\n        /* \"#utility.yul\":187:199   */\n      revert\n        /* \"#utility.yul\":334:443   */\n    tag_36:\n        /* \"#utility.yul\":416:418   */\n      0x10\n        /* \"#utility.yul\":409:414   */\n      dup2\n        /* \"#utility.yul\":406:419   */\n      lt\n        /* \"#utility.yul\":396:437   */\n      tag_50\n      jumpi\n        /* \"#utility.yul\":433:434   */\n      0x00\n        /* \"#utility.yul\":430:431   */\n      dup1\n        /* \"#utility.yul\":423:435   */\n      revert\n        /* \"#utility.yul\":396:437   */\n    tag_50:\n        /* \"#utility.yul\":334:443   */\n      pop\n      jump\t// out\n        /* \"#utility.yul\":449:606   */\n    tag_37:\n        /* \"#utility.yul\":504:509   */\n      0x00\n        /* \"#utility.yul\":542:548   */\n      dup2\n        /* \"#utility.yul\":529:549   */\n      calldataload\n        /* \"#utility.yul\":520:549   */\n      swap1\n      pop\n        /* \"#utility.yul\":558:600   */\n      tag_52\n        /* \"#utility.yul\":594:599   */\n      dup2\n        /* \"#utility.yul\":558:600   */\n      tag_36\n      jump\t// in\n    tag_52:\n        /* \"#utility.yul\":449:606   */\n      swap3\n      swap2\n      pop\n      pop\n      jump\t// out\n        /* \"#utility.yul\":612:689   */\n    tag_38:\n        /* \"#utility.yul\":649:656   */\n      0x00\n        /* \"#utility.yul\":678:683   */\n      dup2\n        /* \"#utility.yul\":667:683   */\n      swap1\n      pop\n        /* \"#utility.yul\":612:689   */\n      swap2\n      swap1\n      pop\n      jump\t// out\n        /* \"#utility.yul\":695:817   */\n    tag_39:\n        /* \"#utility.yul\":768:792   */\n      tag_55\n        /* \"#utility.yul\":786:791   */\n      dup2\n        /* \"#utility.yul\":768:792   */\n      tag_38\n      jump\t// in\n    tag_55:\n        /* \"#utility.yul\":761:766   */\n      dup2\n        /* \"#utility.yul\":758:793   */\n      eq\n        /* \"#utility.yul\":748:811   */\n      tag_56\n      jumpi\n        /* \"#utility.yul\":807:808   */\n      0x00\n        /* \"#utility.yul\":804:805   */\n      dup1\n        /* \"#utility.yul\":797:809   */\n      revert\n        /* \"#utility.yul\":748:811   */\n    tag_56:\n        /* \"#utility.yul\":695:817   */\n      pop\n      jump\t// out\n        /* \"#utility.yul\":823:962   */\n    tag_40:\n        /* \"#utility.yul\":869:874   */\n      0x00\n        /* \"#utility.yul\":907:913   */\n      dup2\n        /* \"#utility.yul\":894:914   */\n      calldataload\n        /* \"#utility.yul\":885:914   */\n      swap1\n      pop\n        /* \"#utility.yul\":923:956   */\n      tag_58\n        /* \"#utility.yul\":950:955   */\n      dup2\n        /* \"#utility.yul\":923:956   */\n      tag_39\n      jump\t// in\n    tag_58:\n        /* \"#utility.yul\":823:962   */\n      swap3\n      swap2\n      pop\n      pop\n      jump\t// out\n        /* \"#utility.yul\":968:1605   */\n    tag_7:\n        /* \"#utility.yul\":1054:1060   */\n      0x00\n        /* \"#utility.yul\":1062:1068   */\n      dup1\n        /* \"#utility.yul\":1070:1076   */\n      0x00\n        /* \"#utility.yul\":1119:1121   */\n      0x60\n        /* \"#utility.yul\":1107:1116   */\n      dup5\n        /* \"#utility.yul\":1098:1105   */\n      dup7\n        /* \"#utility.yul\":1094:1117   */\n      sub\n        /* \"#utility.yul\":1090:1122   */\n      slt\n        /* \"#utility.yul\":1087:1206   */\n      iszero\n      tag_60\n      jumpi\n        /* \"#utility.yul\":1125:1204   */\n      tag_61\n      tag_34\n      jump\t// in\n    tag_61:\n        /* \"#utility.yul\":1087:1206   */\n    tag_60:\n        /* \"#utility.yul\":1245:1246   */\n      0x00\n        /* \"#utility.yul\":1270:1332   */\n      tag_62\n        /* \"#utility.yul\":1324:1331   */\n      dup7\n        /* \"#utility.yul\":1315:1321   */\n      dup3\n        /* \"#utility.yul\":1304:1313   */\n      dup8\n        /* \"#utility.yul\":1300:1322   */\n      add\n        /* \"#utility.yul\":1270:1332   */\n      tag_37\n      jump\t// in\n    tag_62:\n        /* \"#utility.yul\":1260:1332   */\n      swap4\n      pop\n        /* \"#utility.yul\":1216:1342   */\n      pop\n        /* \"#utility.yul\":1381:1383   */\n      0x20\n        /* \"#utility.yul\":1407:1460   */\n      tag_63\n        /* \"#utility.yul\":1452:1459   */\n      dup7\n        /* \"#utility.yul\":1443:1449   */\n      dup3\n        /* \"#utility.yul\":1432:1441   */\n      dup8\n        /* \"#utility.yul\":1428:1450   */\n      add\n        /* \"#utility.yul\":1407:1460   */\n      tag_40\n      jump\t// in\n    tag_63:\n        /* \"#utility.yul\":1397:1460   */\n      swap3\n      pop\n        /* \"#utility.yul\":1352:1470   */\n      pop\n        /* \"#utility.yul\":1509:1511   */\n      0x40\n        /* \"#utility.yul\":1535:1588   */\n      tag_64\n        /* \"#utility.yul\":1580:1587   */\n      dup7\n        /* \"#utility.yul\":1571:1577   */\n      dup3\n        /* \"#utility.yul\":1560:1569   */\n      dup8\n        /* \"#utility.yul\":1556:1578   */\n      add\n        /* \"#utility.yul\":1535:1588   */\n      tag_40\n      jump\t// in\n    tag_64:\n        /* \"#utility.yul\":1525:1588   */\n      swap2\n      pop\n        /* \"#utility.yul\":1480:1598   */\n      pop\n        /* \"#utility.yul\":968:1605   */\n      swap3\n      pop\n      swap3\n      pop\n      swap3\n      jump\t// out\n        /* \"#utility.yul\":1611:2085   */\n    tag_11:\n        /* \"#utility.yul\":1679:1685   */\n      0x00\n        /* \"#utility.yul\":1687:1693   */\n      dup1\n        /* \"#utility.yul\":1736:1738   */\n      0x40\n        /* \"#utility.yul\":1724:1733   */\n      dup4\n        /* \"#utility.yul\":1715:1722   */\n      dup6\n        /* \"#utility.yul\":1711:1734   */\n      sub\n        /* \"#utility.yul\":1707:1739   */\n      slt\n        /* \"#utility.yul\":1704:1823   */\n      iszero\n      tag_66\n      jumpi\n        /* \"#utility.yul\":1742:1821   */\n      tag_67\n      tag_34\n      jump\t// in\n    tag_67:\n        /* \"#utility.yul\":1704:1823   */\n    tag_66:\n        /* \"#utility.yul\":1862:1863   */\n      0x00\n        /* \"#utility.yul\":1887:1940   */\n      tag_68\n        /* \"#utility.yul\":1932:1939   */\n      dup6\n        /* \"#utility.yul\":1923:1929   */\n      dup3\n        /* \"#utility.yul\":1912:1921   */\n      dup7\n        /* \"#utility.yul\":1908:1930   */\n      add\n        /* \"#utility.yul\":1887:1940   */\n      tag_40\n      jump\t// in\n    tag_68:\n        /* \"#utility.yul\":1877:1940   */\n      swap3\n      pop\n        /* \"#utility.yul\":1833:1950   */\n      pop\n        /* \"#utility.yul\":1989:1991   */\n      0x20\n        /* \"#utility.yul\":2015:2068   */\n      tag_69\n        /* \"#utility.yul\":2060:2067   */\n      dup6\n        /* \"#utility.yul\":2051:2057   */\n      dup3\n        /* \"#utility.yul\":2040:2049   */\n      dup7\n        /* \"#utility.yul\":2036:2058   */\n      add\n        /* \"#utility.yul\":2015:2068   */\n      tag_40\n      jump\t// in\n    tag_69:\n        /* \"#utility.yul\":2005:2068   */\n      swap2\n      pop\n        /* \"#utility.yul\":1960:2078   */\n      pop\n        /* \"#utility.yul\":1611:2085   */\n      swap3\n      pop\n      swap3\n      swap1\n      pop\n      jump\t// out\n        /* \"#utility.yul\":2091:2271   */\n    tag_25:\n        /* \"#utility.yul\":2139:2216   */\n      0x4e487b7100000000000000000000000000000000000000000000000000000000\n        /* \"#utility.yul\":2136:2137   */\n      0x00\n        /* \"#utility.yul\":2129:2217   */\n      mstore\n        /* \"#utility.yul\":2236:2240   */\n      0x21\n        /* \"#utility.yul\":2233:2234   */\n      0x04\n        /* \"#utility.yul\":2226:2241   */\n      mstore\n        /* \"#utility.yul\":2260:2264   */\n      0x24\n        /* \"#utility.yul\":2257:2258   */\n      0x00\n        /* \"#utility.yul\":2250:2265   */\n      revert\n        /* \"#utility.yul\":2277:2392   */\n    tag_41:\n        /* \"#utility.yul\":2359:2361   */\n      0x10\n        /* \"#utility.yul\":2352:2357   */\n      dup2\n        /* \"#utility.yul\":2349:2362   */\n      lt\n        /* \"#utility.yul\":2339:2386   */\n      tag_72\n      jumpi\n        /* \"#utility.yul\":2366:2384   */\n      tag_73\n      tag_25\n      jump\t// in\n    tag_73:\n        /* \"#utility.yul\":2339:2386   */\n    tag_72:\n        /* \"#utility.yul\":2277:2392   */\n      pop\n      jump\t// out\n        /* \"#utility.yul\":2398:2527   */\n    tag_42:\n        /* \"#utility.yul\":2444:2451   */\n      0x00\n        /* \"#utility.yul\":2473:2478   */\n      dup2\n        /* \"#utility.yul\":2462:2478   */\n      swap1\n      pop\n        /* \"#utility.yul\":2479:2521   */\n      tag_75\n        /* \"#utility.yul\":2515:2520   */\n      dup3\n        /* \"#utility.yul\":2479:2521   */\n      tag_41\n      jump\t// in\n    tag_75:\n        /* \"#utility.yul\":2398:2527   */\n      swap2\n      swap1\n      pop\n      jump\t// out\n        /* \"#utility.yul\":2533:2662   */\n    tag_43:\n        /* \"#utility.yul\":2590:2599   */\n      0x00\n        /* \"#utility.yul\":2623:2656   */\n      tag_77\n        /* \"#utility.yul\":2650:2655   */\n      dup3\n        /* \"#utility.yul\":2623:2656   */\n      tag_42\n      jump\t// in\n    tag_77:\n        /* \"#utility.yul\":2610:2656   */\n      swap1\n      pop\n        /* \"#utility.yul\":2533:2662   */\n      swap2\n      swap1\n      pop\n      jump\t// out\n        /* \"#utility.yul\":2668:2813   */\n    tag_44:\n        /* \"#utility.yul\":2762:2806   */\n      tag_79\n        /* \"#utility.yul\":2800:2805   */\n      dup2\n        /* \"#utility.yul\":2762:2806   */\n      tag_43\n      jump\t// in\n    tag_79:\n        /* \"#utility.yul\":2757:2760   */\n      dup3\n        /* \"#utility.yul\":2750:2807   */\n      mstore\n        /* \"#utility.yul\":2668:2813   */\n      pop\n      pop\n      jump\t// out\n        /* \"#utility.yul\":2819:3055   */\n    tag_14:\n        /* \"#utility.yul\":2919:2923   */\n      0x00\n        /* \"#utility.yul\":2957:2959   */\n      0x20\n        /* \"#utility.yul\":2946:2955   */\n      dup3\n        /* \"#utility.yul\":2942:2960   */\n      add\n        /* \"#utility.yul\":2934:2960   */\n      swap1\n      pop\n        /* \"#utility.yul\":2970:3048   */\n      tag_81\n        /* \"#utility.yul\":3045:3046   */\n      0x00\n        /* \"#utility.yul\":3034:3043   */\n      dup4\n        /* \"#utility.yul\":3030:3047   */\n      add\n        /* \"#utility.yul\":3021:3027   */\n      dup5\n        /* \"#utility.yul\":2970:3048   */\n      tag_44\n      jump\t// in\n    tag_81:\n        /* \"#utility.yul\":2819:3055   */\n      swap3\n      swap2\n      pop\n      pop\n      jump\t// out\n        /* \"#utility.yul\":3061:3241   */\n    tag_18:\n        /* \"#utility.yul\":3109:3186   */\n      0x4e487b7100000000000000000000000000000000000000000000000000000000\n        /* \"#utility.yul\":3106:3107   */\n      0x00\n        /* \"#utility.yul\":3099:3187   */\n      mstore\n        /* \"#utility.yul\":3206:3210   */\n      0x32\n        /* \"#utility.yul\":3203:3204   */\n      0x04\n        /* \"#utility.yul\":3196:3211   */\n      mstore\n        /* \"#utility.yul\":3230:3234   */\n      0x24\n        /* \"#utility.yul\":3227:3228   */\n      0x00\n        /* \"#utility.yul\":3220:3235   */\n      revert\n\n    auxdata: 0xa26469706673582212205620668354664adf0a4ce7e0a9e4e8db58fa0e7c338892204e99bb38bee282bf64736f6c634300080d0033\n}\n","bytecode":{"linkReferences":{},"object":"608060405234801561001057600080fd5b5060005b60108110156100a75760005b601081101561009357600080836010811061003e5761003d6100ad565b5b018260108110610051576100506100ad565b5b602091828204019190066101000a81548160ff0219169083600f81111561007b5761007a6100dc565b5b0217905550808061008b90610144565b915050610020565b50808061009f90610144565b915050610014565b5061018c565b7f4e487b7100000000000000000000000000000000000000000000000000000000600052603260045260246000fd5b7f4e487b7100000000000000000000000000000000000000000000000000000000600052602160045260246000fd5b7f4e487b7100000000000000000000000000000000000000000000000000000000600052601160045260246000fd5b6000819050919050565b600061014f8261013a565b91507fffffffffffffffffffffffffffffffffffffffffffffffffffffffffffffffff82036101815761018061010b565b5b600182019050919050565b6103138061019b6000396000f3fe608060405234801561001057600080fd5b50600436106100365760003560e01c806348fcefdf1461003b5780637c25220814610057575b600080fd5b61005560048036038101906100509190610189565b610087565b005b610071600480360381019061006c91906101dc565b6100e3565b60405161007e9190610293565b60405180910390f35b826000836010811061009c5761009b6102ae565b5b0182601081106100af576100ae6102ae565b5b602091828204019190066101000a81548160ff0219169083600f8111156100d9576100d861021c565b5b0217905550505050565b60008083601081106100f8576100f76102ae565b5b01826010811061010b5761010a6102ae565b5b602091828204019190069054906101000a900460ff16905092915050565b600080fd5b6010811061013b57600080fd5b50565b60008135905061014d8161012e565b92915050565b6000819050919050565b61016681610153565b811461017157600080fd5b50565b6000813590506101838161015d565b92915050565b6000806000606084860312156101a2576101a1610129565b5b60006101b08682870161013e565b93505060206101c186828701610174565b92505060406101d286828701610174565b9150509250925092565b600080604083850312156101f3576101f2610129565b5b600061020185828601610174565b925050602061021285828601610174565b9150509250929050565b7f4e487b7100000000000000000000000000000000000000000000000000000000600052602160045260246000fd5b6010811061025c5761025b61021c565b5b50565b600081905061026d8261024b565b919050565b600061027d8261025f565b9050919050565b61028d81610272565b82525050565b60006020820190506102a86000830184610284565b92915050565b7f4e487b7100000000000000000000000000000000000000000000000000000000600052603260045260246000fdfea26469706673582212205620668354664adf0a4ce7e0a9e4e8db58fa0e7c338892204e99bb38bee282bf64736f6c634300080d0033","opcodes":"PUSH1 0x80 PUSH1 0x40 MSTORE CALLVALUE DUP1 ISZERO PUSH2 0x10 JUMPI PUSH1 0x0 DUP1 REVERT JUMPDEST POP PUSH1 0x0 JUMPDEST PUSH1 0x10 DUP2 LT ISZERO PUSH2 0xA7 JUMPI PUSH1 0x0 JUMPDEST PUSH1 0x10 DUP2 LT ISZERO PUSH2 0x93 JUMPI PUSH1 0x0 DUP1 DUP4 PUSH1 0x10 DUP2 LT PUSH2 0x3E JUMPI PUSH2 0x3D PUSH2 0xAD JUMP JUMPDEST JUMPDEST ADD DUP3 PUSH1 0x10 DUP2 LT PUSH2 0x51 JUMPI PUSH2 0x50 PUSH2 0xAD JUMP JUMPDEST JUMPDEST PUSH1 0x20 SWAP2 DUP3 DUP3 DIV ADD SWAP2 SWAP1 MOD PUSH2 0x100 EXP DUP2 SLOAD DUP2 PUSH1 0xFF MUL NOT AND SWAP1 DUP4 PUSH1 0xF DUP2 GT ISZERO PUSH2 0x7B JUMPI PUSH2 0x7A PUSH2 0xDC JUMP JUMPDEST JUMPDEST MUL OR SWAP1 SSTORE POP DUP1 DUP1 PUSH2 0x8B SWAP1 PUSH2 0x144 JUMP JUMPDEST SWAP2 POP POP PUSH2 0x20 JUMP JUMPDEST POP DUP1 DUP1 PUSH2 0x9F SWAP1 PUSH2 0x144 JUMP JUMPDEST SWAP2 POP POP PUSH2 0x14 JUMP JUMPDEST POP PUSH2 0x18C JUMP JUMPDEST PUSH32 0x4E487B7100000000000000000000000000000000000000000000000000000000 PUSH1 0x0 MSTORE PUSH1 0x32 PUSH1 0x4 MSTORE PUSH1 0x24 PUSH1 0x0 REVERT JUMPDEST PUSH32 0x4E487B7100000000000000000000000000000000000000000000000000000000 PUSH1 0x0 MSTORE PUSH1 0x21 PUSH1 0x4 MSTORE PUSH1 0x24 PUSH1 0x0 REVERT JUMPDEST PUSH32 0x4E487B7100000000000000000000000000000000000000000000000000000000 PUSH1 0x0 MSTORE PUSH1 0x11 PUSH1 0x4 MSTORE PUSH1 0x24 PUSH1 0x0 REVERT JUMPDEST PUSH1 0x0 DUP2 SWAP1 POP SWAP2 SWAP1 POP JUMP JUMPDEST PUSH1 0x0 PUSH2 0x14F DUP3 PUSH2 0x13A JUMP JUMPDEST SWAP2 POP PUSH32 0xFFFFFFFFFFFFFFFFFFFFFFFFFFFFFFFFFFFFFFFFFFFFFFFFFFFFFFFFFFFFFFFF DUP3 SUB PUSH2 0x181 JUMPI PUSH2 0x180 PUSH2 0x10B JUMP JUMPDEST JUMPDEST PUSH1 0x1 DUP3 ADD SWAP1 POP SWAP2 SWAP1 POP JUMP JUMPDEST PUSH2 0x313 DUP1 PUSH2 0x19B PUSH1 0x0 CODECOPY PUSH1 0x0 RETURN INVALID PUSH1 0x80 PUSH1 0x40 MSTORE CALLVALUE DUP1 ISZERO PUSH2 0x10 JUMPI PUSH1 0x0 DUP1 REVERT JUMPDEST POP PUSH1 0x4 CALLDATASIZE LT PUSH2 0x36 JUMPI PUSH1 0x0 CALLDATALOAD PUSH1 0xE0 SHR DUP1 PUSH4 0x48FCEFDF EQ PUSH2 0x3B JUMPI DUP1 PUSH4 0x7C252208 EQ PUSH2 0x57 JUMPI JUMPDEST PUSH1 0x0 DUP1 REVERT JUMPDEST PUSH2 0x55 PUSH1 0x4 DUP1 CALLDATASIZE SUB DUP2 ADD SWAP1 PUSH2 0x50 SWAP2 SWAP1 PUSH2 0x189 JUMP JUMPDEST PUSH2 0x87 JUMP JUMPDEST STOP JUMPDEST PUSH2 0x71 PUSH1 0x4 DUP1 CALLDATASIZE SUB DUP2 ADD SWAP1 PUSH2 0x6C SWAP2 SWAP1 PUSH2 0x1DC JUMP JUMPDEST PUSH2 0xE3 JUMP JUMPDEST PUSH1 0x40 MLOAD PUSH2 0x7E SWAP2 SWAP1 PUSH2 0x293 JUMP JUMPDEST PUSH1 0x40 MLOAD DUP1 SWAP2 SUB SWAP1 RETURN JUMPDEST DUP3 PUSH1 0x0 DUP4 PUSH1 0x10 DUP2 LT PUSH2 0x9C JUMPI PUSH2 0x9B PUSH2 0x2AE JUMP JUMPDEST JUMPDEST ADD DUP3 PUSH1 0x10 DUP2 LT PUSH2 0xAF JUMPI PUSH2 0xAE PUSH2 0x2AE JUMP JUMPDEST JUMPDEST PUSH1 0x20 SWAP2 DUP3 DUP3 DIV ADD SWAP2 SWAP1 MOD PUSH2 0x100 EXP DUP2 SLOAD DUP2 PUSH1 0xFF MUL NOT AND SWAP1 DUP4 PUSH1 0xF DUP2 GT ISZERO PUSH2 0xD9 JUMPI PUSH2 0xD8 PUSH2 0x21C JUMP JUMPDEST JUMPDEST MUL OR SWAP1 SSTORE POP POP POP POP JUMP JUMPDEST PUSH1 0x0 DUP1 DUP4 PUSH1 0x10 DUP2 LT PUSH2 0xF8 JUMPI PUSH2 0xF7 PUSH2 0x2AE JUMP JUMPDEST JUMPDEST ADD DUP3 PUSH1 0x10 DUP2 LT PUSH2 0x10B JUMPI PUSH2 0x10A PUSH2 0x2AE JUMP JUMPDEST JUMPDEST PUSH1 0x20 SWAP2 DUP3 DUP3 DIV ADD SWAP2 SWAP1 MOD SWAP1 SLOAD SWAP1 PUSH2 0x100 EXP SWAP1 DIV PUSH1 0xFF AND SWAP1 POP SWAP3 SWAP2 POP POP JUMP JUMPDEST PUSH1 0x0 DUP1 REVERT JUMPDEST PUSH1 0x10 DUP2 LT PUSH2 0x13B JUMPI PUSH1 0x0 DUP1 REVERT JUMPDEST POP JUMP JUMPDEST PUSH1 0x0 DUP2 CALLDATALOAD SWAP1 POP PUSH2 0x14D DUP2 PUSH2 0x12E JUMP JUMPDEST SWAP3 SWAP2 POP POP JUMP JUMPDEST PUSH1 0x0 DUP2 SWAP1 POP SWAP2 SWAP1 POP JUMP JUMPDEST PUSH2 0x166 DUP2 PUSH2 0x153 JUMP JUMPDEST DUP2 EQ PUSH2 0x171 JUMPI PUSH1 0x0 DUP1 REVERT JUMPDEST POP JUMP JUMPDEST PUSH1 0x0 DUP2 CALLDATALOAD SWAP1 POP PUSH2 0x183 DUP2 PUSH2 0x15D JUMP JUMPDEST SWAP3 SWAP2 POP POP JUMP JUMPDEST PUSH1 0x0 DUP1 PUSH1 0x0 PUSH1 0x60 DUP5 DUP7 SUB SLT ISZERO PUSH2 0x1A2 JUMPI PUSH2 0x1A1 PUSH2 0x129 JUMP JUMPDEST JUMPDEST PUSH1 0x0 PUSH2 0x1B0 DUP7 DUP3 DUP8 ADD PUSH2 0x13E JUMP JUMPDEST SWAP4 POP POP PUSH1 0x20 PUSH2 0x1C1 DUP7 DUP3 DUP8 ADD PUSH2 0x174 JUMP JUMPDEST SWAP3 POP POP PUSH1 0x40 PUSH2 0x1D2 DUP7 DUP3 DUP8 ADD PUSH2 0x174 JUMP JUMPDEST SWAP2 POP POP SWAP3 POP SWAP3 POP SWAP3 JUMP JUMPDEST PUSH1 0x0 DUP1 PUSH1 0x40 DUP4 DUP6 SUB SLT ISZERO PUSH2 0x1F3 JUMPI PUSH2 0x1F2 PUSH2 0x129 JUMP JUMPDEST JUMPDEST PUSH1 0x0 PUSH2 0x201 DUP6 DUP3 DUP7 ADD PUSH2 0x174 JUMP JUMPDEST SWAP3 POP POP PUSH1 0x20 PUSH2 0x212 DUP6 DUP3 DUP7 ADD PUSH2 0x174 JUMP JUMPDEST SWAP2 POP POP SWAP3 POP SWAP3 SWAP1 POP JUMP JUMPDEST PUSH32 0x4E487B7100000000000000000000000000000000000000000000000000000000 PUSH1 0x0 MSTORE PUSH1 0x21 PUSH1 0x4 MSTORE PUSH1 0x24 PUSH1 0x0 REVERT JUMPDEST PUSH1 0x10 DUP2 LT PUSH2 0x25C JUMPI PUSH2 0x25B PUSH2 0x21C JUMP JUMPDEST JUMPDEST POP JUMP JUMPDEST PUSH1 0x0 DUP2 SWAP1 POP PUSH2 0x26D DUP3 PUSH2 0x24B JUMP JUMPDEST SWAP2 SWAP1 POP JUMP JUMPDEST PUSH1 0x0 PUSH2 0x27D DUP3 PUSH2 0x25F JUMP JUMPDEST SWAP1 POP SWAP2 SWAP1 POP JUMP JUMPDEST PUSH2 0x28D DUP2 PUSH2 0x272 JUMP JUMPDEST DUP3 MSTORE POP POP JUMP JUMPDEST PUSH1 0x0 PUSH1 0x20 DUP3 ADD SWAP1 POP PUSH2 0x2A8 PUSH1 0x0 DUP4 ADD DUP5 PUSH2 0x284 JUMP JUMPDEST SWAP3 SWAP2 POP POP JUMP JUMPDEST PUSH32 0x4E487B7100000000000000000000000000000000000000000000000000000000 PUSH1 0x0 MSTORE PUSH1 0x32 PUSH1 0x4 MSTORE PUSH1 0x24 PUSH1 0x0 REVERT INVALID LOG2 PUSH5 0x6970667358 0x22 SLT KECCAK256 JUMP KECCAK256 PUSH7 0x8354664ADF0A4C 0xE7 0xE0 0xA9 0xE4 0xE8 0xDB PC STATICCALL 0xE PUSH29 0x338892204E99BB38BEE282BF64736F6C634300080D0033000000000000 "},"gasEstimates":{"creation":{"codeDepositCost":"157400","executionCost":"infinite","totalCost":"infinite"},"external":{"retrieve(uint256,uint256)":"infinite","store(uint8,uint256,uint256)":"infinite"}},"methodIdentifiers":{"retrieve(uint256,uint256)":"7c252208","store(uint8,uint256,uint256)":"48fcefdf"}},"storageLayout":{"storage":[{"astId":25,"contract":"/home/krubot/Projects/eth-place/contracts/eth_place.sol:Places","label":"state","offset":0,"slot":"0","type":"t_array(t_array(t_enum(Colour)18)16_storage)16_storage"}],"types":{"t_array(t_array(t_enum(Colour)18)16_storage)16_storage":{"base":"t_array(t_enum(Colour)18)16_storage","encoding":"inplace","label":"enum Places.Colour[16][16]","numberOfBytes":"512"},"t_array(t_enum(Colour)18)16_storage":{"base":"t_enum(Colour)18","encoding":"inplace","label":"enum Places.Colour[16]","numberOfBytes":"32"},"t_enum(Colour)18":{"encoding":"inplace","label":"enum Places.Colour","numberOfBytes":"1"}}},"userdoc":{"kind":"user","methods":{},"version":1}}