{"abi":[{"inputs":[],"stateMutability":"nonpayable","type":"constructor"},{"inputs":[],"name":"basePrice","outputs":[{"internalType":"uint256","name":"","type":"uint256"}],"stateMutability":"view","type":"function"},{"inputs":[{"internalType":"uint256","name":"i","type":"uint256"},{"internalType":"uint256","name":"j","type":"uint256"}],"name":"retrieve","outputs":[{"internalType":"enum Places.Colour","name":"","type":"uint8"}],"stateMutability":"view","type":"function"},{"inputs":[{"internalType":"enum Places.Colour","name":"_colour","type":"uint8"},{"internalType":"uint256","name":"i","type":"uint256"},{"internalType":"uint256","name":"j","type":"uint256"}],"name":"store","outputs":[],"stateMutability":"payable","type":"function"}],"devdoc":{"kind":"dev","methods":{},"version":1},"evm":{"assembly":"    /* \"/home/krubot/Projects/eth-place/contracts/eth_place.sol\":63:1264  contract Places {... */\n  mstore(0x40, 0x80)\n    /* \"/home/krubot/Projects/eth-place/contracts/eth_place.sol\":665:854  constructor() public {... */\n  callvalue\n  dup1\n  iszero\n  tag_1\n  jumpi\n  0x00\n  dup1\n  revert\ntag_1:\n  pop\n    /* \"/home/krubot/Projects/eth-place/contracts/eth_place.sol\":704:705  0 */\n  0x00\n    /* \"/home/krubot/Projects/eth-place/contracts/eth_place.sol\":696:701  price */\n  0x10\n    /* \"/home/krubot/Projects/eth-place/contracts/eth_place.sol\":696:705  price = 0 */\n  dup2\n  swap1\n  sstore\n  pop\n    /* \"/home/krubot/Projects/eth-place/contracts/eth_place.sol\":720:726  uint i */\n  0x00\n    /* \"/home/krubot/Projects/eth-place/contracts/eth_place.sol\":715:848  for (uint i=0; i<16; i++){... */\ntag_4:\n    /* \"/home/krubot/Projects/eth-place/contracts/eth_place.sol\":732:734  16 */\n  0x10\n    /* \"/home/krubot/Projects/eth-place/contracts/eth_place.sol\":730:731  i */\n  dup2\n    /* \"/home/krubot/Projects/eth-place/contracts/eth_place.sol\":730:734  i<16 */\n  lt\n    /* \"/home/krubot/Projects/eth-place/contracts/eth_place.sol\":715:848  for (uint i=0; i<16; i++){... */\n  iszero\n  tag_5\n  jumpi\n    /* \"/home/krubot/Projects/eth-place/contracts/eth_place.sol\":759:765  uint j */\n  0x00\n    /* \"/home/krubot/Projects/eth-place/contracts/eth_place.sol\":754:838  for (uint j=0; j<16; j++){... */\ntag_7:\n    /* \"/home/krubot/Projects/eth-place/contracts/eth_place.sol\":771:773  16 */\n  0x10\n    /* \"/home/krubot/Projects/eth-place/contracts/eth_place.sol\":769:770  j */\n  dup2\n    /* \"/home/krubot/Projects/eth-place/contracts/eth_place.sol\":769:773  j<16 */\n  lt\n    /* \"/home/krubot/Projects/eth-place/contracts/eth_place.sol\":754:838  for (uint j=0; j<16; j++){... */\n  iszero\n  tag_8\n  jumpi\n    /* \"/home/krubot/Projects/eth-place/contracts/eth_place.sol\":811:823  Colour.White */\n  0x00\n    /* \"/home/krubot/Projects/eth-place/contracts/eth_place.sol\":797:802  state */\n  dup1\n    /* \"/home/krubot/Projects/eth-place/contracts/eth_place.sol\":803:804  i */\n  dup4\n    /* \"/home/krubot/Projects/eth-place/contracts/eth_place.sol\":797:805  state[i] */\n  0x10\n  dup2\n  lt\n  tag_10\n  jumpi\n  tag_11\n  tag_12\n  jump\t// in\ntag_11:\ntag_10:\n  add\n    /* \"/home/krubot/Projects/eth-place/contracts/eth_place.sol\":806:807  j */\n  dup3\n    /* \"/home/krubot/Projects/eth-place/contracts/eth_place.sol\":797:808  state[i][j] */\n  0x10\n  dup2\n  lt\n  tag_14\n  jumpi\n  tag_15\n  tag_12\n  jump\t// in\ntag_15:\ntag_14:\n  0x20\n  swap2\n  dup3\n  dup3\n  div\n  add\n  swap2\n  swap1\n  mod\n    /* \"/home/krubot/Projects/eth-place/contracts/eth_place.sol\":797:823  state[i][j] = Colour.White */\n  0x0100\n  exp\n  dup2\n  sload\n  dup2\n  0xff\n  mul\n  not\n  and\n  swap1\n  dup4\n  0x0f\n  dup2\n  gt\n  iszero\n  tag_17\n  jumpi\n  tag_18\n  tag_19\n  jump\t// in\ntag_18:\ntag_17:\n  mul\n  or\n  swap1\n  sstore\n  pop\n    /* \"/home/krubot/Projects/eth-place/contracts/eth_place.sol\":775:778  j++ */\n  dup1\n  dup1\n  tag_20\n  swap1\n  tag_21\n  jump\t// in\ntag_20:\n  swap2\n  pop\n  pop\n    /* \"/home/krubot/Projects/eth-place/contracts/eth_place.sol\":754:838  for (uint j=0; j<16; j++){... */\n  jump(tag_7)\ntag_8:\n  pop\n    /* \"/home/krubot/Projects/eth-place/contracts/eth_place.sol\":736:739  i++ */\n  dup1\n  dup1\n  tag_22\n  swap1\n  tag_21\n  jump\t// in\ntag_22:\n  swap2\n  pop\n  pop\n    /* \"/home/krubot/Projects/eth-place/contracts/eth_place.sol\":715:848  for (uint i=0; i<16; i++){... */\n  jump(tag_4)\ntag_5:\n  pop\n    /* \"/home/krubot/Projects/eth-place/contracts/eth_place.sol\":63:1264  contract Places {... */\n  jump(tag_23)\n    /* \"#utility.yul\":7:187   */\ntag_12:\n    /* \"#utility.yul\":55:132   */\n  0x4e487b7100000000000000000000000000000000000000000000000000000000\n    /* \"#utility.yul\":52:53   */\n  0x00\n    /* \"#utility.yul\":45:133   */\n  mstore\n    /* \"#utility.yul\":152:156   */\n  0x32\n    /* \"#utility.yul\":149:150   */\n  0x04\n    /* \"#utility.yul\":142:157   */\n  mstore\n    /* \"#utility.yul\":176:180   */\n  0x24\n    /* \"#utility.yul\":173:174   */\n  0x00\n    /* \"#utility.yul\":166:181   */\n  revert\n    /* \"#utility.yul\":193:373   */\ntag_19:\n    /* \"#utility.yul\":241:318   */\n  0x4e487b7100000000000000000000000000000000000000000000000000000000\n    /* \"#utility.yul\":238:239   */\n  0x00\n    /* \"#utility.yul\":231:319   */\n  mstore\n    /* \"#utility.yul\":338:342   */\n  0x21\n    /* \"#utility.yul\":335:336   */\n  0x04\n    /* \"#utility.yul\":328:343   */\n  mstore\n    /* \"#utility.yul\":362:366   */\n  0x24\n    /* \"#utility.yul\":359:360   */\n  0x00\n    /* \"#utility.yul\":352:367   */\n  revert\n    /* \"#utility.yul\":379:559   */\ntag_24:\n    /* \"#utility.yul\":427:504   */\n  0x4e487b7100000000000000000000000000000000000000000000000000000000\n    /* \"#utility.yul\":424:425   */\n  0x00\n    /* \"#utility.yul\":417:505   */\n  mstore\n    /* \"#utility.yul\":524:528   */\n  0x11\n    /* \"#utility.yul\":521:522   */\n  0x04\n    /* \"#utility.yul\":514:529   */\n  mstore\n    /* \"#utility.yul\":548:552   */\n  0x24\n    /* \"#utility.yul\":545:546   */\n  0x00\n    /* \"#utility.yul\":538:553   */\n  revert\n    /* \"#utility.yul\":565:642   */\ntag_25:\n    /* \"#utility.yul\":602:609   */\n  0x00\n    /* \"#utility.yul\":631:636   */\n  dup2\n    /* \"#utility.yul\":620:636   */\n  swap1\n  pop\n    /* \"#utility.yul\":565:642   */\n  swap2\n  swap1\n  pop\n  jump\t// out\n    /* \"#utility.yul\":648:881   */\ntag_21:\n    /* \"#utility.yul\":687:690   */\n  0x00\n    /* \"#utility.yul\":710:734   */\n  tag_32\n    /* \"#utility.yul\":728:733   */\n  dup3\n    /* \"#utility.yul\":710:734   */\n  tag_25\n  jump\t// in\ntag_32:\n    /* \"#utility.yul\":701:734   */\n  swap2\n  pop\n    /* \"#utility.yul\":756:822   */\n  0xffffffffffffffffffffffffffffffffffffffffffffffffffffffffffffffff\n    /* \"#utility.yul\":749:754   */\n  dup3\n    /* \"#utility.yul\":746:823   */\n  sub\n    /* \"#utility.yul\":743:846   */\n  tag_33\n  jumpi\n    /* \"#utility.yul\":826:844   */\n  tag_34\n  tag_24\n  jump\t// in\ntag_34:\n    /* \"#utility.yul\":743:846   */\ntag_33:\n    /* \"#utility.yul\":873:874   */\n  0x01\n    /* \"#utility.yul\":866:871   */\n  dup3\n    /* \"#utility.yul\":862:875   */\n  add\n    /* \"#utility.yul\":855:875   */\n  swap1\n  pop\n    /* \"#utility.yul\":648:881   */\n  swap2\n  swap1\n  pop\n  jump\t// out\n    /* \"/home/krubot/Projects/eth-place/contracts/eth_place.sol\":63:1264  contract Places {... */\ntag_23:\n  dataSize(sub_0)\n  dup1\n  dataOffset(sub_0)\n  0x00\n  codecopy\n  0x00\n  return\nstop\n\nsub_0: assembly {\n        /* \"/home/krubot/Projects/eth-place/contracts/eth_place.sol\":63:1264  contract Places {... */\n      mstore(0x40, 0x80)\n      jumpi(tag_1, lt(calldatasize, 0x04))\n      shr(0xe0, calldataload(0x00))\n      dup1\n      0x48fcefdf\n      eq\n      tag_2\n      jumpi\n      dup1\n      0x7c252208\n      eq\n      tag_3\n      jumpi\n      dup1\n      0xc7876ea4\n      eq\n      tag_4\n      jumpi\n    tag_1:\n      0x00\n      dup1\n      revert\n        /* \"/home/krubot/Projects/eth-place/contracts/eth_place.sol\":860:1077  function store(Colour _colour, uint i, uint j) public payable {... */\n    tag_2:\n      tag_5\n      0x04\n      dup1\n      calldatasize\n      sub\n      dup2\n      add\n      swap1\n      tag_6\n      swap2\n      swap1\n      tag_7\n      jump\t// in\n    tag_6:\n      tag_8\n      jump\t// in\n    tag_5:\n      stop\n        /* \"/home/krubot/Projects/eth-place/contracts/eth_place.sol\":1165:1262  function retrieve(uint i, uint j) public view returns (Colour){... */\n    tag_3:\n      callvalue\n      dup1\n      iszero\n      tag_9\n      jumpi\n      0x00\n      dup1\n      revert\n    tag_9:\n      pop\n      tag_10\n      0x04\n      dup1\n      calldatasize\n      sub\n      dup2\n      add\n      swap1\n      tag_11\n      swap2\n      swap1\n      tag_12\n      jump\t// in\n    tag_11:\n      tag_13\n      jump\t// in\n    tag_10:\n      mload(0x40)\n      tag_14\n      swap2\n      swap1\n      tag_15\n      jump\t// in\n    tag_14:\n      mload(0x40)\n      dup1\n      swap2\n      sub\n      swap1\n      return\n        /* \"/home/krubot/Projects/eth-place/contracts/eth_place.sol\":1083:1159  function basePrice() public view returns (uint){... */\n    tag_4:\n      callvalue\n      dup1\n      iszero\n      tag_16\n      jumpi\n      0x00\n      dup1\n      revert\n    tag_16:\n      pop\n      tag_17\n      tag_18\n      jump\t// in\n    tag_17:\n      mload(0x40)\n      tag_19\n      swap2\n      swap1\n      tag_20\n      jump\t// in\n    tag_19:\n      mload(0x40)\n      dup1\n      swap2\n      sub\n      swap1\n      return\n        /* \"/home/krubot/Projects/eth-place/contracts/eth_place.sol\":860:1077  function store(Colour _colour, uint i, uint j) public payable {... */\n    tag_8:\n        /* \"/home/krubot/Projects/eth-place/contracts/eth_place.sol\":953:958  price */\n      sload(0x10)\n        /* \"/home/krubot/Projects/eth-place/contracts/eth_place.sol\":940:949  msg.value */\n      callvalue\n        /* \"/home/krubot/Projects/eth-place/contracts/eth_place.sol\":940:958  msg.value >= price */\n      lt\n      iszero\n        /* \"/home/krubot/Projects/eth-place/contracts/eth_place.sol\":932:1006  require(msg.value >= price, \"You need to send more than the current base\") */\n      tag_22\n      jumpi\n      mload(0x40)\n      0x08c379a000000000000000000000000000000000000000000000000000000000\n      dup2\n      mstore\n      0x04\n      add\n      tag_23\n      swap1\n      tag_24\n      jump\t// in\n    tag_23:\n      mload(0x40)\n      dup1\n      swap2\n      sub\n      swap1\n      revert\n    tag_22:\n        /* \"/home/krubot/Projects/eth-place/contracts/eth_place.sol\":1032:1039  1000000 */\n      0x0f4240\n        /* \"/home/krubot/Projects/eth-place/contracts/eth_place.sol\":1024:1029  price */\n      sload(0x10)\n        /* \"/home/krubot/Projects/eth-place/contracts/eth_place.sol\":1024:1039  price + 1000000 */\n      tag_25\n      swap2\n      swap1\n      tag_26\n      jump\t// in\n    tag_25:\n        /* \"/home/krubot/Projects/eth-place/contracts/eth_place.sol\":1016:1021  price */\n      0x10\n        /* \"/home/krubot/Projects/eth-place/contracts/eth_place.sol\":1016:1039  price = price + 1000000 */\n      dup2\n      swap1\n      sstore\n      pop\n        /* \"/home/krubot/Projects/eth-place/contracts/eth_place.sol\":1063:1070  _colour */\n      dup3\n        /* \"/home/krubot/Projects/eth-place/contracts/eth_place.sol\":1049:1054  state */\n      0x00\n        /* \"/home/krubot/Projects/eth-place/contracts/eth_place.sol\":1055:1056  i */\n      dup4\n        /* \"/home/krubot/Projects/eth-place/contracts/eth_place.sol\":1049:1057  state[i] */\n      0x10\n      dup2\n      lt\n      tag_27\n      jumpi\n      tag_28\n      tag_29\n      jump\t// in\n    tag_28:\n    tag_27:\n      add\n        /* \"/home/krubot/Projects/eth-place/contracts/eth_place.sol\":1058:1059  j */\n      dup3\n        /* \"/home/krubot/Projects/eth-place/contracts/eth_place.sol\":1049:1060  state[i][j] */\n      0x10\n      dup2\n      lt\n      tag_31\n      jumpi\n      tag_32\n      tag_29\n      jump\t// in\n    tag_32:\n    tag_31:\n      0x20\n      swap2\n      dup3\n      dup3\n      div\n      add\n      swap2\n      swap1\n      mod\n        /* \"/home/krubot/Projects/eth-place/contracts/eth_place.sol\":1049:1070  state[i][j] = _colour */\n      0x0100\n      exp\n      dup2\n      sload\n      dup2\n      0xff\n      mul\n      not\n      and\n      swap1\n      dup4\n      0x0f\n      dup2\n      gt\n      iszero\n      tag_34\n      jumpi\n      tag_35\n      tag_36\n      jump\t// in\n    tag_35:\n    tag_34:\n      mul\n      or\n      swap1\n      sstore\n      pop\n        /* \"/home/krubot/Projects/eth-place/contracts/eth_place.sol\":860:1077  function store(Colour _colour, uint i, uint j) public payable {... */\n      pop\n      pop\n      pop\n      jump\t// out\n        /* \"/home/krubot/Projects/eth-place/contracts/eth_place.sol\":1165:1262  function retrieve(uint i, uint j) public view returns (Colour){... */\n    tag_13:\n        /* \"/home/krubot/Projects/eth-place/contracts/eth_place.sol\":1220:1226  Colour */\n      0x00\n        /* \"/home/krubot/Projects/eth-place/contracts/eth_place.sol\":1244:1249  state */\n      dup1\n        /* \"/home/krubot/Projects/eth-place/contracts/eth_place.sol\":1250:1251  i */\n      dup4\n        /* \"/home/krubot/Projects/eth-place/contracts/eth_place.sol\":1244:1252  state[i] */\n      0x10\n      dup2\n      lt\n      tag_38\n      jumpi\n      tag_39\n      tag_29\n      jump\t// in\n    tag_39:\n    tag_38:\n      add\n        /* \"/home/krubot/Projects/eth-place/contracts/eth_place.sol\":1253:1254  j */\n      dup3\n        /* \"/home/krubot/Projects/eth-place/contracts/eth_place.sol\":1244:1255  state[i][j] */\n      0x10\n      dup2\n      lt\n      tag_41\n      jumpi\n      tag_42\n      tag_29\n      jump\t// in\n    tag_42:\n    tag_41:\n      0x20\n      swap2\n      dup3\n      dup3\n      div\n      add\n      swap2\n      swap1\n      mod\n      swap1\n      sload\n      swap1\n      0x0100\n      exp\n      swap1\n      div\n      0xff\n      and\n        /* \"/home/krubot/Projects/eth-place/contracts/eth_place.sol\":1237:1255  return state[i][j] */\n      swap1\n      pop\n        /* \"/home/krubot/Projects/eth-place/contracts/eth_place.sol\":1165:1262  function retrieve(uint i, uint j) public view returns (Colour){... */\n      swap3\n      swap2\n      pop\n      pop\n      jump\t// out\n        /* \"/home/krubot/Projects/eth-place/contracts/eth_place.sol\":1083:1159  function basePrice() public view returns (uint){... */\n    tag_18:\n        /* \"/home/krubot/Projects/eth-place/contracts/eth_place.sol\":1125:1129  uint */\n      0x00\n        /* \"/home/krubot/Projects/eth-place/contracts/eth_place.sol\":1147:1152  price */\n      sload(0x10)\n        /* \"/home/krubot/Projects/eth-place/contracts/eth_place.sol\":1140:1152  return price */\n      swap1\n      pop\n        /* \"/home/krubot/Projects/eth-place/contracts/eth_place.sol\":1083:1159  function basePrice() public view returns (uint){... */\n      swap1\n      jump\t// out\n        /* \"#utility.yul\":88:205   */\n    tag_46:\n        /* \"#utility.yul\":197:198   */\n      0x00\n        /* \"#utility.yul\":194:195   */\n      dup1\n        /* \"#utility.yul\":187:199   */\n      revert\n        /* \"#utility.yul\":334:443   */\n    tag_48:\n        /* \"#utility.yul\":416:418   */\n      0x10\n        /* \"#utility.yul\":409:414   */\n      dup2\n        /* \"#utility.yul\":406:419   */\n      lt\n        /* \"#utility.yul\":396:437   */\n      tag_67\n      jumpi\n        /* \"#utility.yul\":433:434   */\n      0x00\n        /* \"#utility.yul\":430:431   */\n      dup1\n        /* \"#utility.yul\":423:435   */\n      revert\n        /* \"#utility.yul\":396:437   */\n    tag_67:\n        /* \"#utility.yul\":334:443   */\n      pop\n      jump\t// out\n        /* \"#utility.yul\":449:606   */\n    tag_49:\n        /* \"#utility.yul\":504:509   */\n      0x00\n        /* \"#utility.yul\":542:548   */\n      dup2\n        /* \"#utility.yul\":529:549   */\n      calldataload\n        /* \"#utility.yul\":520:549   */\n      swap1\n      pop\n        /* \"#utility.yul\":558:600   */\n      tag_69\n        /* \"#utility.yul\":594:599   */\n      dup2\n        /* \"#utility.yul\":558:600   */\n      tag_48\n      jump\t// in\n    tag_69:\n        /* \"#utility.yul\":449:606   */\n      swap3\n      swap2\n      pop\n      pop\n      jump\t// out\n        /* \"#utility.yul\":612:689   */\n    tag_50:\n        /* \"#utility.yul\":649:656   */\n      0x00\n        /* \"#utility.yul\":678:683   */\n      dup2\n        /* \"#utility.yul\":667:683   */\n      swap1\n      pop\n        /* \"#utility.yul\":612:689   */\n      swap2\n      swap1\n      pop\n      jump\t// out\n        /* \"#utility.yul\":695:817   */\n    tag_51:\n        /* \"#utility.yul\":768:792   */\n      tag_72\n        /* \"#utility.yul\":786:791   */\n      dup2\n        /* \"#utility.yul\":768:792   */\n      tag_50\n      jump\t// in\n    tag_72:\n        /* \"#utility.yul\":761:766   */\n      dup2\n        /* \"#utility.yul\":758:793   */\n      eq\n        /* \"#utility.yul\":748:811   */\n      tag_73\n      jumpi\n        /* \"#utility.yul\":807:808   */\n      0x00\n        /* \"#utility.yul\":804:805   */\n      dup1\n        /* \"#utility.yul\":797:809   */\n      revert\n        /* \"#utility.yul\":748:811   */\n    tag_73:\n        /* \"#utility.yul\":695:817   */\n      pop\n      jump\t// out\n        /* \"#utility.yul\":823:962   */\n    tag_52:\n        /* \"#utility.yul\":869:874   */\n      0x00\n        /* \"#utility.yul\":907:913   */\n      dup2\n        /* \"#utility.yul\":894:914   */\n      calldataload\n        /* \"#utility.yul\":885:914   */\n      swap1\n      pop\n        /* \"#utility.yul\":923:956   */\n      tag_75\n        /* \"#utility.yul\":950:955   */\n      dup2\n        /* \"#utility.yul\":923:956   */\n      tag_51\n      jump\t// in\n    tag_75:\n        /* \"#utility.yul\":823:962   */\n      swap3\n      swap2\n      pop\n      pop\n      jump\t// out\n        /* \"#utility.yul\":968:1605   */\n    tag_7:\n        /* \"#utility.yul\":1054:1060   */\n      0x00\n        /* \"#utility.yul\":1062:1068   */\n      dup1\n        /* \"#utility.yul\":1070:1076   */\n      0x00\n        /* \"#utility.yul\":1119:1121   */\n      0x60\n        /* \"#utility.yul\":1107:1116   */\n      dup5\n        /* \"#utility.yul\":1098:1105   */\n      dup7\n        /* \"#utility.yul\":1094:1117   */\n      sub\n        /* \"#utility.yul\":1090:1122   */\n      slt\n        /* \"#utility.yul\":1087:1206   */\n      iszero\n      tag_77\n      jumpi\n        /* \"#utility.yul\":1125:1204   */\n      tag_78\n      tag_46\n      jump\t// in\n    tag_78:\n        /* \"#utility.yul\":1087:1206   */\n    tag_77:\n        /* \"#utility.yul\":1245:1246   */\n      0x00\n        /* \"#utility.yul\":1270:1332   */\n      tag_79\n        /* \"#utility.yul\":1324:1331   */\n      dup7\n        /* \"#utility.yul\":1315:1321   */\n      dup3\n        /* \"#utility.yul\":1304:1313   */\n      dup8\n        /* \"#utility.yul\":1300:1322   */\n      add\n        /* \"#utility.yul\":1270:1332   */\n      tag_49\n      jump\t// in\n    tag_79:\n        /* \"#utility.yul\":1260:1332   */\n      swap4\n      pop\n        /* \"#utility.yul\":1216:1342   */\n      pop\n        /* \"#utility.yul\":1381:1383   */\n      0x20\n        /* \"#utility.yul\":1407:1460   */\n      tag_80\n        /* \"#utility.yul\":1452:1459   */\n      dup7\n        /* \"#utility.yul\":1443:1449   */\n      dup3\n        /* \"#utility.yul\":1432:1441   */\n      dup8\n        /* \"#utility.yul\":1428:1450   */\n      add\n        /* \"#utility.yul\":1407:1460   */\n      tag_52\n      jump\t// in\n    tag_80:\n        /* \"#utility.yul\":1397:1460   */\n      swap3\n      pop\n        /* \"#utility.yul\":1352:1470   */\n      pop\n        /* \"#utility.yul\":1509:1511   */\n      0x40\n        /* \"#utility.yul\":1535:1588   */\n      tag_81\n        /* \"#utility.yul\":1580:1587   */\n      dup7\n        /* \"#utility.yul\":1571:1577   */\n      dup3\n        /* \"#utility.yul\":1560:1569   */\n      dup8\n        /* \"#utility.yul\":1556:1578   */\n      add\n        /* \"#utility.yul\":1535:1588   */\n      tag_52\n      jump\t// in\n    tag_81:\n        /* \"#utility.yul\":1525:1588   */\n      swap2\n      pop\n        /* \"#utility.yul\":1480:1598   */\n      pop\n        /* \"#utility.yul\":968:1605   */\n      swap3\n      pop\n      swap3\n      pop\n      swap3\n      jump\t// out\n        /* \"#utility.yul\":1611:2085   */\n    tag_12:\n        /* \"#utility.yul\":1679:1685   */\n      0x00\n        /* \"#utility.yul\":1687:1693   */\n      dup1\n        /* \"#utility.yul\":1736:1738   */\n      0x40\n        /* \"#utility.yul\":1724:1733   */\n      dup4\n        /* \"#utility.yul\":1715:1722   */\n      dup6\n        /* \"#utility.yul\":1711:1734   */\n      sub\n        /* \"#utility.yul\":1707:1739   */\n      slt\n        /* \"#utility.yul\":1704:1823   */\n      iszero\n      tag_83\n      jumpi\n        /* \"#utility.yul\":1742:1821   */\n      tag_84\n      tag_46\n      jump\t// in\n    tag_84:\n        /* \"#utility.yul\":1704:1823   */\n    tag_83:\n        /* \"#utility.yul\":1862:1863   */\n      0x00\n        /* \"#utility.yul\":1887:1940   */\n      tag_85\n        /* \"#utility.yul\":1932:1939   */\n      dup6\n        /* \"#utility.yul\":1923:1929   */\n      dup3\n        /* \"#utility.yul\":1912:1921   */\n      dup7\n        /* \"#utility.yul\":1908:1930   */\n      add\n        /* \"#utility.yul\":1887:1940   */\n      tag_52\n      jump\t// in\n    tag_85:\n        /* \"#utility.yul\":1877:1940   */\n      swap3\n      pop\n        /* \"#utility.yul\":1833:1950   */\n      pop\n        /* \"#utility.yul\":1989:1991   */\n      0x20\n        /* \"#utility.yul\":2015:2068   */\n      tag_86\n        /* \"#utility.yul\":2060:2067   */\n      dup6\n        /* \"#utility.yul\":2051:2057   */\n      dup3\n        /* \"#utility.yul\":2040:2049   */\n      dup7\n        /* \"#utility.yul\":2036:2058   */\n      add\n        /* \"#utility.yul\":2015:2068   */\n      tag_52\n      jump\t// in\n    tag_86:\n        /* \"#utility.yul\":2005:2068   */\n      swap2\n      pop\n        /* \"#utility.yul\":1960:2078   */\n      pop\n        /* \"#utility.yul\":1611:2085   */\n      swap3\n      pop\n      swap3\n      swap1\n      pop\n      jump\t// out\n        /* \"#utility.yul\":2091:2271   */\n    tag_36:\n        /* \"#utility.yul\":2139:2216   */\n      0x4e487b7100000000000000000000000000000000000000000000000000000000\n        /* \"#utility.yul\":2136:2137   */\n      0x00\n        /* \"#utility.yul\":2129:2217   */\n      mstore\n        /* \"#utility.yul\":2236:2240   */\n      0x21\n        /* \"#utility.yul\":2233:2234   */\n      0x04\n        /* \"#utility.yul\":2226:2241   */\n      mstore\n        /* \"#utility.yul\":2260:2264   */\n      0x24\n        /* \"#utility.yul\":2257:2258   */\n      0x00\n        /* \"#utility.yul\":2250:2265   */\n      revert\n        /* \"#utility.yul\":2277:2392   */\n    tag_53:\n        /* \"#utility.yul\":2359:2361   */\n      0x10\n        /* \"#utility.yul\":2352:2357   */\n      dup2\n        /* \"#utility.yul\":2349:2362   */\n      lt\n        /* \"#utility.yul\":2339:2386   */\n      tag_89\n      jumpi\n        /* \"#utility.yul\":2366:2384   */\n      tag_90\n      tag_36\n      jump\t// in\n    tag_90:\n        /* \"#utility.yul\":2339:2386   */\n    tag_89:\n        /* \"#utility.yul\":2277:2392   */\n      pop\n      jump\t// out\n        /* \"#utility.yul\":2398:2527   */\n    tag_54:\n        /* \"#utility.yul\":2444:2451   */\n      0x00\n        /* \"#utility.yul\":2473:2478   */\n      dup2\n        /* \"#utility.yul\":2462:2478   */\n      swap1\n      pop\n        /* \"#utility.yul\":2479:2521   */\n      tag_92\n        /* \"#utility.yul\":2515:2520   */\n      dup3\n        /* \"#utility.yul\":2479:2521   */\n      tag_53\n      jump\t// in\n    tag_92:\n        /* \"#utility.yul\":2398:2527   */\n      swap2\n      swap1\n      pop\n      jump\t// out\n        /* \"#utility.yul\":2533:2662   */\n    tag_55:\n        /* \"#utility.yul\":2590:2599   */\n      0x00\n        /* \"#utility.yul\":2623:2656   */\n      tag_94\n        /* \"#utility.yul\":2650:2655   */\n      dup3\n        /* \"#utility.yul\":2623:2656   */\n      tag_54\n      jump\t// in\n    tag_94:\n        /* \"#utility.yul\":2610:2656   */\n      swap1\n      pop\n        /* \"#utility.yul\":2533:2662   */\n      swap2\n      swap1\n      pop\n      jump\t// out\n        /* \"#utility.yul\":2668:2813   */\n    tag_56:\n        /* \"#utility.yul\":2762:2806   */\n      tag_96\n        /* \"#utility.yul\":2800:2805   */\n      dup2\n        /* \"#utility.yul\":2762:2806   */\n      tag_55\n      jump\t// in\n    tag_96:\n        /* \"#utility.yul\":2757:2760   */\n      dup3\n        /* \"#utility.yul\":2750:2807   */\n      mstore\n        /* \"#utility.yul\":2668:2813   */\n      pop\n      pop\n      jump\t// out\n        /* \"#utility.yul\":2819:3055   */\n    tag_15:\n        /* \"#utility.yul\":2919:2923   */\n      0x00\n        /* \"#utility.yul\":2957:2959   */\n      0x20\n        /* \"#utility.yul\":2946:2955   */\n      dup3\n        /* \"#utility.yul\":2942:2960   */\n      add\n        /* \"#utility.yul\":2934:2960   */\n      swap1\n      pop\n        /* \"#utility.yul\":2970:3048   */\n      tag_98\n        /* \"#utility.yul\":3045:3046   */\n      0x00\n        /* \"#utility.yul\":3034:3043   */\n      dup4\n        /* \"#utility.yul\":3030:3047   */\n      add\n        /* \"#utility.yul\":3021:3027   */\n      dup5\n        /* \"#utility.yul\":2970:3048   */\n      tag_56\n      jump\t// in\n    tag_98:\n        /* \"#utility.yul\":2819:3055   */\n      swap3\n      swap2\n      pop\n      pop\n      jump\t// out\n        /* \"#utility.yul\":3061:3179   */\n    tag_57:\n        /* \"#utility.yul\":3148:3172   */\n      tag_100\n        /* \"#utility.yul\":3166:3171   */\n      dup2\n        /* \"#utility.yul\":3148:3172   */\n      tag_50\n      jump\t// in\n    tag_100:\n        /* \"#utility.yul\":3143:3146   */\n      dup3\n        /* \"#utility.yul\":3136:3173   */\n      mstore\n        /* \"#utility.yul\":3061:3179   */\n      pop\n      pop\n      jump\t// out\n        /* \"#utility.yul\":3185:3407   */\n    tag_20:\n        /* \"#utility.yul\":3278:3282   */\n      0x00\n        /* \"#utility.yul\":3316:3318   */\n      0x20\n        /* \"#utility.yul\":3305:3314   */\n      dup3\n        /* \"#utility.yul\":3301:3319   */\n      add\n        /* \"#utility.yul\":3293:3319   */\n      swap1\n      pop\n        /* \"#utility.yul\":3329:3400   */\n      tag_102\n        /* \"#utility.yul\":3397:3398   */\n      0x00\n        /* \"#utility.yul\":3386:3395   */\n      dup4\n        /* \"#utility.yul\":3382:3399   */\n      add\n        /* \"#utility.yul\":3373:3379   */\n      dup5\n        /* \"#utility.yul\":3329:3400   */\n      tag_57\n      jump\t// in\n    tag_102:\n        /* \"#utility.yul\":3185:3407   */\n      swap3\n      swap2\n      pop\n      pop\n      jump\t// out\n        /* \"#utility.yul\":3413:3582   */\n    tag_58:\n        /* \"#utility.yul\":3497:3508   */\n      0x00\n        /* \"#utility.yul\":3531:3537   */\n      dup3\n        /* \"#utility.yul\":3526:3529   */\n      dup3\n        /* \"#utility.yul\":3519:3538   */\n      mstore\n        /* \"#utility.yul\":3571:3575   */\n      0x20\n        /* \"#utility.yul\":3566:3569   */\n      dup3\n        /* \"#utility.yul\":3562:3576   */\n      add\n        /* \"#utility.yul\":3547:3576   */\n      swap1\n      pop\n        /* \"#utility.yul\":3413:3582   */\n      swap3\n      swap2\n      pop\n      pop\n      jump\t// out\n        /* \"#utility.yul\":3588:3818   */\n    tag_59:\n        /* \"#utility.yul\":3728:3762   */\n      0x596f75206e65656420746f2073656e64206d6f7265207468616e207468652063\n        /* \"#utility.yul\":3724:3725   */\n      0x00\n        /* \"#utility.yul\":3716:3722   */\n      dup3\n        /* \"#utility.yul\":3712:3726   */\n      add\n        /* \"#utility.yul\":3705:3763   */\n      mstore\n        /* \"#utility.yul\":3797:3810   */\n      0x757272656e742062617365000000000000000000000000000000000000000000\n        /* \"#utility.yul\":3792:3794   */\n      0x20\n        /* \"#utility.yul\":3784:3790   */\n      dup3\n        /* \"#utility.yul\":3780:3795   */\n      add\n        /* \"#utility.yul\":3773:3811   */\n      mstore\n        /* \"#utility.yul\":3588:3818   */\n      pop\n      jump\t// out\n        /* \"#utility.yul\":3824:4190   */\n    tag_60:\n        /* \"#utility.yul\":3966:3969   */\n      0x00\n        /* \"#utility.yul\":3987:4054   */\n      tag_106\n        /* \"#utility.yul\":4051:4053   */\n      0x2b\n        /* \"#utility.yul\":4046:4049   */\n      dup4\n        /* \"#utility.yul\":3987:4054   */\n      tag_58\n      jump\t// in\n    tag_106:\n        /* \"#utility.yul\":3980:4054   */\n      swap2\n      pop\n        /* \"#utility.yul\":4063:4156   */\n      tag_107\n        /* \"#utility.yul\":4152:4155   */\n      dup3\n        /* \"#utility.yul\":4063:4156   */\n      tag_59\n      jump\t// in\n    tag_107:\n        /* \"#utility.yul\":4181:4183   */\n      0x40\n        /* \"#utility.yul\":4176:4179   */\n      dup3\n        /* \"#utility.yul\":4172:4184   */\n      add\n        /* \"#utility.yul\":4165:4184   */\n      swap1\n      pop\n        /* \"#utility.yul\":3824:4190   */\n      swap2\n      swap1\n      pop\n      jump\t// out\n        /* \"#utility.yul\":4196:4615   */\n    tag_24:\n        /* \"#utility.yul\":4362:4366   */\n      0x00\n        /* \"#utility.yul\":4400:4402   */\n      0x20\n        /* \"#utility.yul\":4389:4398   */\n      dup3\n        /* \"#utility.yul\":4385:4403   */\n      add\n        /* \"#utility.yul\":4377:4403   */\n      swap1\n      pop\n        /* \"#utility.yul\":4449:4458   */\n      dup2\n        /* \"#utility.yul\":4443:4447   */\n      dup2\n        /* \"#utility.yul\":4439:4459   */\n      sub\n        /* \"#utility.yul\":4435:4436   */\n      0x00\n        /* \"#utility.yul\":4424:4433   */\n      dup4\n        /* \"#utility.yul\":4420:4437   */\n      add\n        /* \"#utility.yul\":4413:4460   */\n      mstore\n        /* \"#utility.yul\":4477:4608   */\n      tag_109\n        /* \"#utility.yul\":4603:4607   */\n      dup2\n        /* \"#utility.yul\":4477:4608   */\n      tag_60\n      jump\t// in\n    tag_109:\n        /* \"#utility.yul\":4469:4608   */\n      swap1\n      pop\n        /* \"#utility.yul\":4196:4615   */\n      swap2\n      swap1\n      pop\n      jump\t// out\n        /* \"#utility.yul\":4621:4801   */\n    tag_61:\n        /* \"#utility.yul\":4669:4746   */\n      0x4e487b7100000000000000000000000000000000000000000000000000000000\n        /* \"#utility.yul\":4666:4667   */\n      0x00\n        /* \"#utility.yul\":4659:4747   */\n      mstore\n        /* \"#utility.yul\":4766:4770   */\n      0x11\n        /* \"#utility.yul\":4763:4764   */\n      0x04\n        /* \"#utility.yul\":4756:4771   */\n      mstore\n        /* \"#utility.yul\":4790:4794   */\n      0x24\n        /* \"#utility.yul\":4787:4788   */\n      0x00\n        /* \"#utility.yul\":4780:4795   */\n      revert\n        /* \"#utility.yul\":4807:5112   */\n    tag_26:\n        /* \"#utility.yul\":4847:4850   */\n      0x00\n        /* \"#utility.yul\":4866:4886   */\n      tag_112\n        /* \"#utility.yul\":4884:4885   */\n      dup3\n        /* \"#utility.yul\":4866:4886   */\n      tag_50\n      jump\t// in\n    tag_112:\n        /* \"#utility.yul\":4861:4886   */\n      swap2\n      pop\n        /* \"#utility.yul\":4900:4920   */\n      tag_113\n        /* \"#utility.yul\":4918:4919   */\n      dup4\n        /* \"#utility.yul\":4900:4920   */\n      tag_50\n      jump\t// in\n    tag_113:\n        /* \"#utility.yul\":4895:4920   */\n      swap3\n      pop\n        /* \"#utility.yul\":5054:5055   */\n      dup3\n        /* \"#utility.yul\":4986:5052   */\n      0xffffffffffffffffffffffffffffffffffffffffffffffffffffffffffffffff\n        /* \"#utility.yul\":4982:5056   */\n      sub\n        /* \"#utility.yul\":4979:4980   */\n      dup3\n        /* \"#utility.yul\":4976:5057   */\n      gt\n        /* \"#utility.yul\":4973:5080   */\n      iszero\n      tag_114\n      jumpi\n        /* \"#utility.yul\":5060:5078   */\n      tag_115\n      tag_61\n      jump\t// in\n    tag_115:\n        /* \"#utility.yul\":4973:5080   */\n    tag_114:\n        /* \"#utility.yul\":5104:5105   */\n      dup3\n        /* \"#utility.yul\":5101:5102   */\n      dup3\n        /* \"#utility.yul\":5097:5106   */\n      add\n        /* \"#utility.yul\":5090:5106   */\n      swap1\n      pop\n        /* \"#utility.yul\":4807:5112   */\n      swap3\n      swap2\n      pop\n      pop\n      jump\t// out\n        /* \"#utility.yul\":5118:5298   */\n    tag_29:\n        /* \"#utility.yul\":5166:5243   */\n      0x4e487b7100000000000000000000000000000000000000000000000000000000\n        /* \"#utility.yul\":5163:5164   */\n      0x00\n        /* \"#utility.yul\":5156:5244   */\n      mstore\n        /* \"#utility.yul\":5263:5267   */\n      0x32\n        /* \"#utility.yul\":5260:5261   */\n      0x04\n        /* \"#utility.yul\":5253:5268   */\n      mstore\n        /* \"#utility.yul\":5287:5291   */\n      0x24\n        /* \"#utility.yul\":5284:5285   */\n      0x00\n        /* \"#utility.yul\":5277:5292   */\n      revert\n\n    auxdata: 0xa2646970667358221220d424459b3f37f4a58653ccb6770281e553093ce93a676f4070cabbff2962fcb264736f6c634300080d0033\n}\n","bytecode":{"linkReferences":{},"object":"608060405234801561001057600080fd5b50600060108190555060005b60108110156100af5760005b601081101561009b576000808360108110610046576100456100b5565b5b018260108110610059576100586100b5565b5b602091828204019190066101000a81548160ff0219169083600f811115610083576100826100e4565b5b021790555080806100939061014c565b915050610028565b5080806100a79061014c565b91505061001c565b50610194565b7f4e487b7100000000000000000000000000000000000000000000000000000000600052603260045260246000fd5b7f4e487b7100000000000000000000000000000000000000000000000000000000600052602160045260246000fd5b7f4e487b7100000000000000000000000000000000000000000000000000000000600052601160045260246000fd5b6000819050919050565b600061015782610142565b91507fffffffffffffffffffffffffffffffffffffffffffffffffffffffffffffffff820361018957610188610113565b5b600182019050919050565b610501806101a36000396000f3fe6080604052600436106100345760003560e01c806348fcefdf146100395780637c25220814610055578063c7876ea414610092575b600080fd5b610053600480360381019061004e9190610225565b6100bd565b005b34801561006157600080fd5b5061007c60048036038101906100779190610278565b610175565b604051610089919061032f565b60405180910390f35b34801561009e57600080fd5b506100a76101bb565b6040516100b49190610359565b60405180910390f35b601054341015610102576040517f08c379a00000000000000000000000000000000000000000000000000000000081526004016100f9906103f7565b60405180910390fd5b620f42406010546101139190610446565b601081905550826000836010811061012e5761012d61049c565b5b0182601081106101415761014061049c565b5b602091828204019190066101000a81548160ff0219169083600f81111561016b5761016a6102b8565b5b0217905550505050565b600080836010811061018a5761018961049c565b5b01826010811061019d5761019c61049c565b5b602091828204019190069054906101000a900460ff16905092915050565b6000601054905090565b600080fd5b601081106101d757600080fd5b50565b6000813590506101e9816101ca565b92915050565b6000819050919050565b610202816101ef565b811461020d57600080fd5b50565b60008135905061021f816101f9565b92915050565b60008060006060848603121561023e5761023d6101c5565b5b600061024c868287016101da565b935050602061025d86828701610210565b925050604061026e86828701610210565b9150509250925092565b6000806040838503121561028f5761028e6101c5565b5b600061029d85828601610210565b92505060206102ae85828601610210565b9150509250929050565b7f4e487b7100000000000000000000000000000000000000000000000000000000600052602160045260246000fd5b601081106102f8576102f76102b8565b5b50565b6000819050610309826102e7565b919050565b6000610319826102fb565b9050919050565b6103298161030e565b82525050565b60006020820190506103446000830184610320565b92915050565b610353816101ef565b82525050565b600060208201905061036e600083018461034a565b92915050565b600082825260208201905092915050565b7f596f75206e65656420746f2073656e64206d6f7265207468616e20746865206360008201527f757272656e742062617365000000000000000000000000000000000000000000602082015250565b60006103e1602b83610374565b91506103ec82610385565b604082019050919050565b60006020820190508181036000830152610410816103d4565b9050919050565b7f4e487b7100000000000000000000000000000000000000000000000000000000600052601160045260246000fd5b6000610451826101ef565b915061045c836101ef565b9250827fffffffffffffffffffffffffffffffffffffffffffffffffffffffffffffffff0382111561049157610490610417565b5b828201905092915050565b7f4e487b7100000000000000000000000000000000000000000000000000000000600052603260045260246000fdfea2646970667358221220d424459b3f37f4a58653ccb6770281e553093ce93a676f4070cabbff2962fcb264736f6c634300080d0033","opcodes":"PUSH1 0x80 PUSH1 0x40 MSTORE CALLVALUE DUP1 ISZERO PUSH2 0x10 JUMPI PUSH1 0x0 DUP1 REVERT JUMPDEST POP PUSH1 0x0 PUSH1 0x10 DUP2 SWAP1 SSTORE POP PUSH1 0x0 JUMPDEST PUSH1 0x10 DUP2 LT ISZERO PUSH2 0xAF JUMPI PUSH1 0x0 JUMPDEST PUSH1 0x10 DUP2 LT ISZERO PUSH2 0x9B JUMPI PUSH1 0x0 DUP1 DUP4 PUSH1 0x10 DUP2 LT PUSH2 0x46 JUMPI PUSH2 0x45 PUSH2 0xB5 JUMP JUMPDEST JUMPDEST ADD DUP3 PUSH1 0x10 DUP2 LT PUSH2 0x59 JUMPI PUSH2 0x58 PUSH2 0xB5 JUMP JUMPDEST JUMPDEST PUSH1 0x20 SWAP2 DUP3 DUP3 DIV ADD SWAP2 SWAP1 MOD PUSH2 0x100 EXP DUP2 SLOAD DUP2 PUSH1 0xFF MUL NOT AND SWAP1 DUP4 PUSH1 0xF DUP2 GT ISZERO PUSH2 0x83 JUMPI PUSH2 0x82 PUSH2 0xE4 JUMP JUMPDEST JUMPDEST MUL OR SWAP1 SSTORE POP DUP1 DUP1 PUSH2 0x93 SWAP1 PUSH2 0x14C JUMP JUMPDEST SWAP2 POP POP PUSH2 0x28 JUMP JUMPDEST POP DUP1 DUP1 PUSH2 0xA7 SWAP1 PUSH2 0x14C JUMP JUMPDEST SWAP2 POP POP PUSH2 0x1C JUMP JUMPDEST POP PUSH2 0x194 JUMP JUMPDEST PUSH32 0x4E487B7100000000000000000000000000000000000000000000000000000000 PUSH1 0x0 MSTORE PUSH1 0x32 PUSH1 0x4 MSTORE PUSH1 0x24 PUSH1 0x0 REVERT JUMPDEST PUSH32 0x4E487B7100000000000000000000000000000000000000000000000000000000 PUSH1 0x0 MSTORE PUSH1 0x21 PUSH1 0x4 MSTORE PUSH1 0x24 PUSH1 0x0 REVERT JUMPDEST PUSH32 0x4E487B7100000000000000000000000000000000000000000000000000000000 PUSH1 0x0 MSTORE PUSH1 0x11 PUSH1 0x4 MSTORE PUSH1 0x24 PUSH1 0x0 REVERT JUMPDEST PUSH1 0x0 DUP2 SWAP1 POP SWAP2 SWAP1 POP JUMP JUMPDEST PUSH1 0x0 PUSH2 0x157 DUP3 PUSH2 0x142 JUMP JUMPDEST SWAP2 POP PUSH32 0xFFFFFFFFFFFFFFFFFFFFFFFFFFFFFFFFFFFFFFFFFFFFFFFFFFFFFFFFFFFFFFFF DUP3 SUB PUSH2 0x189 JUMPI PUSH2 0x188 PUSH2 0x113 JUMP JUMPDEST JUMPDEST PUSH1 0x1 DUP3 ADD SWAP1 POP SWAP2 SWAP1 POP JUMP JUMPDEST PUSH2 0x501 DUP1 PUSH2 0x1A3 PUSH1 0x0 CODECOPY PUSH1 0x0 RETURN INVALID PUSH1 0x80 PUSH1 0x40 MSTORE PUSH1 0x4 CALLDATASIZE LT PUSH2 0x34 JUMPI PUSH1 0x0 CALLDATALOAD PUSH1 0xE0 SHR DUP1 PUSH4 0x48FCEFDF EQ PUSH2 0x39 JUMPI DUP1 PUSH4 0x7C252208 EQ PUSH2 0x55 JUMPI DUP1 PUSH4 0xC7876EA4 EQ PUSH2 0x92 JUMPI JUMPDEST PUSH1 0x0 DUP1 REVERT JUMPDEST PUSH2 0x53 PUSH1 0x4 DUP1 CALLDATASIZE SUB DUP2 ADD SWAP1 PUSH2 0x4E SWAP2 SWAP1 PUSH2 0x225 JUMP JUMPDEST PUSH2 0xBD JUMP JUMPDEST STOP JUMPDEST CALLVALUE DUP1 ISZERO PUSH2 0x61 JUMPI PUSH1 0x0 DUP1 REVERT JUMPDEST POP PUSH2 0x7C PUSH1 0x4 DUP1 CALLDATASIZE SUB DUP2 ADD SWAP1 PUSH2 0x77 SWAP2 SWAP1 PUSH2 0x278 JUMP JUMPDEST PUSH2 0x175 JUMP JUMPDEST PUSH1 0x40 MLOAD PUSH2 0x89 SWAP2 SWAP1 PUSH2 0x32F JUMP JUMPDEST PUSH1 0x40 MLOAD DUP1 SWAP2 SUB SWAP1 RETURN JUMPDEST CALLVALUE DUP1 ISZERO PUSH2 0x9E JUMPI PUSH1 0x0 DUP1 REVERT JUMPDEST POP PUSH2 0xA7 PUSH2 0x1BB JUMP JUMPDEST PUSH1 0x40 MLOAD PUSH2 0xB4 SWAP2 SWAP1 PUSH2 0x359 JUMP JUMPDEST PUSH1 0x40 MLOAD DUP1 SWAP2 SUB SWAP1 RETURN JUMPDEST PUSH1 0x10 SLOAD CALLVALUE LT ISZERO PUSH2 0x102 JUMPI PUSH1 0x40 MLOAD PUSH32 0x8C379A000000000000000000000000000000000000000000000000000000000 DUP2 MSTORE PUSH1 0x4 ADD PUSH2 0xF9 SWAP1 PUSH2 0x3F7 JUMP JUMPDEST PUSH1 0x40 MLOAD DUP1 SWAP2 SUB SWAP1 REVERT JUMPDEST PUSH3 0xF4240 PUSH1 0x10 SLOAD PUSH2 0x113 SWAP2 SWAP1 PUSH2 0x446 JUMP JUMPDEST PUSH1 0x10 DUP2 SWAP1 SSTORE POP DUP3 PUSH1 0x0 DUP4 PUSH1 0x10 DUP2 LT PUSH2 0x12E JUMPI PUSH2 0x12D PUSH2 0x49C JUMP JUMPDEST JUMPDEST ADD DUP3 PUSH1 0x10 DUP2 LT PUSH2 0x141 JUMPI PUSH2 0x140 PUSH2 0x49C JUMP JUMPDEST JUMPDEST PUSH1 0x20 SWAP2 DUP3 DUP3 DIV ADD SWAP2 SWAP1 MOD PUSH2 0x100 EXP DUP2 SLOAD DUP2 PUSH1 0xFF MUL NOT AND SWAP1 DUP4 PUSH1 0xF DUP2 GT ISZERO PUSH2 0x16B JUMPI PUSH2 0x16A PUSH2 0x2B8 JUMP JUMPDEST JUMPDEST MUL OR SWAP1 SSTORE POP POP POP POP JUMP JUMPDEST PUSH1 0x0 DUP1 DUP4 PUSH1 0x10 DUP2 LT PUSH2 0x18A JUMPI PUSH2 0x189 PUSH2 0x49C JUMP JUMPDEST JUMPDEST ADD DUP3 PUSH1 0x10 DUP2 LT PUSH2 0x19D JUMPI PUSH2 0x19C PUSH2 0x49C JUMP JUMPDEST JUMPDEST PUSH1 0x20 SWAP2 DUP3 DUP3 DIV ADD SWAP2 SWAP1 MOD SWAP1 SLOAD SWAP1 PUSH2 0x100 EXP SWAP1 DIV PUSH1 0xFF AND SWAP1 POP SWAP3 SWAP2 POP POP JUMP JUMPDEST PUSH1 0x0 PUSH1 0x10 SLOAD SWAP1 POP SWAP1 JUMP JUMPDEST PUSH1 0x0 DUP1 REVERT JUMPDEST PUSH1 0x10 DUP2 LT PUSH2 0x1D7 JUMPI PUSH1 0x0 DUP1 REVERT JUMPDEST POP JUMP JUMPDEST PUSH1 0x0 DUP2 CALLDATALOAD SWAP1 POP PUSH2 0x1E9 DUP2 PUSH2 0x1CA JUMP JUMPDEST SWAP3 SWAP2 POP POP JUMP JUMPDEST PUSH1 0x0 DUP2 SWAP1 POP SWAP2 SWAP1 POP JUMP JUMPDEST PUSH2 0x202 DUP2 PUSH2 0x1EF JUMP JUMPDEST DUP2 EQ PUSH2 0x20D JUMPI PUSH1 0x0 DUP1 REVERT JUMPDEST POP JUMP JUMPDEST PUSH1 0x0 DUP2 CALLDATALOAD SWAP1 POP PUSH2 0x21F DUP2 PUSH2 0x1F9 JUMP JUMPDEST SWAP3 SWAP2 POP POP JUMP JUMPDEST PUSH1 0x0 DUP1 PUSH1 0x0 PUSH1 0x60 DUP5 DUP7 SUB SLT ISZERO PUSH2 0x23E JUMPI PUSH2 0x23D PUSH2 0x1C5 JUMP JUMPDEST JUMPDEST PUSH1 0x0 PUSH2 0x24C DUP7 DUP3 DUP8 ADD PUSH2 0x1DA JUMP JUMPDEST SWAP4 POP POP PUSH1 0x20 PUSH2 0x25D DUP7 DUP3 DUP8 ADD PUSH2 0x210 JUMP JUMPDEST SWAP3 POP POP PUSH1 0x40 PUSH2 0x26E DUP7 DUP3 DUP8 ADD PUSH2 0x210 JUMP JUMPDEST SWAP2 POP POP SWAP3 POP SWAP3 POP SWAP3 JUMP JUMPDEST PUSH1 0x0 DUP1 PUSH1 0x40 DUP4 DUP6 SUB SLT ISZERO PUSH2 0x28F JUMPI PUSH2 0x28E PUSH2 0x1C5 JUMP JUMPDEST JUMPDEST PUSH1 0x0 PUSH2 0x29D DUP6 DUP3 DUP7 ADD PUSH2 0x210 JUMP JUMPDEST SWAP3 POP POP PUSH1 0x20 PUSH2 0x2AE DUP6 DUP3 DUP7 ADD PUSH2 0x210 JUMP JUMPDEST SWAP2 POP POP SWAP3 POP SWAP3 SWAP1 POP JUMP JUMPDEST PUSH32 0x4E487B7100000000000000000000000000000000000000000000000000000000 PUSH1 0x0 MSTORE PUSH1 0x21 PUSH1 0x4 MSTORE PUSH1 0x24 PUSH1 0x0 REVERT JUMPDEST PUSH1 0x10 DUP2 LT PUSH2 0x2F8 JUMPI PUSH2 0x2F7 PUSH2 0x2B8 JUMP JUMPDEST JUMPDEST POP JUMP JUMPDEST PUSH1 0x0 DUP2 SWAP1 POP PUSH2 0x309 DUP3 PUSH2 0x2E7 JUMP JUMPDEST SWAP2 SWAP1 POP JUMP JUMPDEST PUSH1 0x0 PUSH2 0x319 DUP3 PUSH2 0x2FB JUMP JUMPDEST SWAP1 POP SWAP2 SWAP1 POP JUMP JUMPDEST PUSH2 0x329 DUP2 PUSH2 0x30E JUMP JUMPDEST DUP3 MSTORE POP POP JUMP JUMPDEST PUSH1 0x0 PUSH1 0x20 DUP3 ADD SWAP1 POP PUSH2 0x344 PUSH1 0x0 DUP4 ADD DUP5 PUSH2 0x320 JUMP JUMPDEST SWAP3 SWAP2 POP POP JUMP JUMPDEST PUSH2 0x353 DUP2 PUSH2 0x1EF JUMP JUMPDEST DUP3 MSTORE POP POP JUMP JUMPDEST PUSH1 0x0 PUSH1 0x20 DUP3 ADD SWAP1 POP PUSH2 0x36E PUSH1 0x0 DUP4 ADD DUP5 PUSH2 0x34A JUMP JUMPDEST SWAP3 SWAP2 POP POP JUMP JUMPDEST PUSH1 0x0 DUP3 DUP3 MSTORE PUSH1 0x20 DUP3 ADD SWAP1 POP SWAP3 SWAP2 POP POP JUMP JUMPDEST PUSH32 0x596F75206E65656420746F2073656E64206D6F7265207468616E207468652063 PUSH1 0x0 DUP3 ADD MSTORE PUSH32 0x757272656E742062617365000000000000000000000000000000000000000000 PUSH1 0x20 DUP3 ADD MSTORE POP JUMP JUMPDEST PUSH1 0x0 PUSH2 0x3E1 PUSH1 0x2B DUP4 PUSH2 0x374 JUMP JUMPDEST SWAP2 POP PUSH2 0x3EC DUP3 PUSH2 0x385 JUMP JUMPDEST PUSH1 0x40 DUP3 ADD SWAP1 POP SWAP2 SWAP1 POP JUMP JUMPDEST PUSH1 0x0 PUSH1 0x20 DUP3 ADD SWAP1 POP DUP2 DUP2 SUB PUSH1 0x0 DUP4 ADD MSTORE PUSH2 0x410 DUP2 PUSH2 0x3D4 JUMP JUMPDEST SWAP1 POP SWAP2 SWAP1 POP JUMP JUMPDEST PUSH32 0x4E487B7100000000000000000000000000000000000000000000000000000000 PUSH1 0x0 MSTORE PUSH1 0x11 PUSH1 0x4 MSTORE PUSH1 0x24 PUSH1 0x0 REVERT JUMPDEST PUSH1 0x0 PUSH2 0x451 DUP3 PUSH2 0x1EF JUMP JUMPDEST SWAP2 POP PUSH2 0x45C DUP4 PUSH2 0x1EF JUMP JUMPDEST SWAP3 POP DUP3 PUSH32 0xFFFFFFFFFFFFFFFFFFFFFFFFFFFFFFFFFFFFFFFFFFFFFFFFFFFFFFFFFFFFFFFF SUB DUP3 GT ISZERO PUSH2 0x491 JUMPI PUSH2 0x490 PUSH2 0x417 JUMP JUMPDEST JUMPDEST DUP3 DUP3 ADD SWAP1 POP SWAP3 SWAP2 POP POP JUMP JUMPDEST PUSH32 0x4E487B7100000000000000000000000000000000000000000000000000000000 PUSH1 0x0 MSTORE PUSH1 0x32 PUSH1 0x4 MSTORE PUSH1 0x24 PUSH1 0x0 REVERT INVALID LOG2 PUSH5 0x6970667358 0x22 SLT KECCAK256 0xD4 0x24 GASLIMIT SWAP12 EXTCODEHASH CALLDATACOPY DELEGATECALL 0xA5 DUP7 MSTORE8 0xCC 0xB6 PUSH24 0x281E553093CE93A676F4070CABBFF2962FCB264736F6C63 NUMBER STOP ADDMOD 0xD STOP CALLER "},"gasEstimates":{"creation":{"codeDepositCost":"256200","executionCost":"infinite","totalCost":"infinite"},"external":{"basePrice()":"2459","retrieve(uint256,uint256)":"infinite","store(uint8,uint256,uint256)":"infinite"}},"methodIdentifiers":{"basePrice()":"c7876ea4","retrieve(uint256,uint256)":"7c252208","store(uint8,uint256,uint256)":"48fcefdf"}},"storageLayout":{"storage":[{"astId":25,"contract":"/home/krubot/Projects/eth-place/contracts/eth_place.sol:Places","label":"state","offset":0,"slot":"0","type":"t_array(t_array(t_enum(Colour)18)16_storage)16_storage"},{"astId":27,"contract":"/home/krubot/Projects/eth-place/contracts/eth_place.sol:Places","label":"price","offset":0,"slot":"16","type":"t_uint256"}],"types":{"t_array(t_array(t_enum(Colour)18)16_storage)16_storage":{"base":"t_array(t_enum(Colour)18)16_storage","encoding":"inplace","label":"enum Places.Colour[16][16]","numberOfBytes":"512"},"t_array(t_enum(Colour)18)16_storage":{"base":"t_enum(Colour)18","encoding":"inplace","label":"enum Places.Colour[16]","numberOfBytes":"32"},"t_enum(Colour)18":{"encoding":"inplace","label":"enum Places.Colour","numberOfBytes":"1"},"t_uint256":{"encoding":"inplace","label":"uint256","numberOfBytes":"32"}}},"userdoc":{"kind":"user","methods":{},"version":1}}